:100000000C9434000C9451000C9451000C94510049
:100010000C9451000C9451000C9451000C9451001C
:100020000C9451000C9451000C9451000C9451000C
:100030000C9451000C9451000C9440060C94510007
:100040000C9451000C9451000C946A070C945100CC
:100050000C940F070C9451000C9451000C94510017
:100060000C9451000C94510011241FBECFEFD8E026
:10007000DEBFCDBF11E0A0E0B1E0E6E0FFE102C0ED
:1000800005900D92A832B107D9F716E0A8E2B1E0C9
:1000900001C01D92AC38B107E1F70E9451010C94E8
:1000A000810F0C940000DF93CF9300D000D0CDB728
:1000B000DEB79C838B831A82198201C0000089817C
:1000C0009A8101969A83898389819A8120E137E216
:1000D000B9010E94E70D009789F78BE290E02BE2CF
:1000E00030E0F901308120E22327FC012083E7CFB3
:1000F000DF93CF9300D000D0CDB7DEB79C838B8346
:100100001A8219828BE290E02BE230E0F901308113
:1001100024E02327FC012083F5CF0F931F93DF9367
:10012000CF93CDB7DEB760970FB6F894DEBF0FBEA2
:10013000CDBF988B8F8701C0000080912C019091DA
:100140002D01FC01828193810097B1F30E9484020A
:1001500080E090E0AAE7B4E489839A83AB83BC8310
:1001600069817A818B819C8120E030E04AE755E407
:100170000E947B0ADC01CB018D839E83AF83B8870D
:1001800011E06D817E818F81988520E030E040E82C
:100190005FE30E94D50B88230CF010E0112329F0B7
:1001A00081E090E09A87898746C011E06D817E8169
:1001B0008F81988520E03FEF4FE757E40E94750B51
:1001C00018160CF010E0112361F169817A818B819E
:1001D0009C8120E030E040E251E40E947B0ADC0197
:1001E000CB01BC01CD010E94A708DC01CB019A879D
:1001F000898712C080E991E09C878B878B859C85DD
:100200008C01C8010197F1F78C011C870B87898548
:100210009A8501979A87898789859A85009751F7EA
:1002200017C06D817E818F8198850E94A708DC01AF
:10023000CB019A87898789859A859E878D878D8549
:100240009E858C01F8013197F1F78F011E870D878C
:1002500080E091E00E941C080E948C026ECFDF9328
:10026000CF93CDB7DEB781E090E00E9494029093E7
:100270002F0180932E0184E690E061E070E00E94FF
:10028000D90290932D0180932C018AE290E02AE21A
:1002900030E0F90120812C6FFC012083CF91DF91A8
:1002A00008950F931F93DF93CF93CDB7DEB76C976D
:1002B0000FB6F894DEBF0FBECDBF0E94D70678946C
:1002C00089E091E00E941C0880E090E0AAEFB3E48E
:1002D00089839A83AB83BC8369817A818B819C817A
:1002E00020E030E04AE755E40E947B0ADC01CB01C4
:1002F0008D839E83AF83B88711E06D817E818F816E
:10030000988520E030E040E85FE30E94D50B882329
:100310000CF010E0112329F081E090E09A878987A2
:1003200046C011E06D817E818F81988520E03FEF8E
:100330004FE757E40E94750B18160CF010E01123DC
:1003400061F169817A818B819C8120E030E040E21B
:1003500051E40E947B0ADC01CB01BC01CD010E946B
:10036000A708DC01CB019A87898712C080E991E058
:100370009C878B878B859C858C01C8010197F1F741
:100380008C011C870B8789859A8501979A878987B5
:1003900089859A85009751F717C06D817E818F817D
:1003A00098850E94A708DC01CB019A8789878985F7
:1003B0009A859E878D878D859E858C01F801319762
:1003C000F1F78F011E870D870E9444060E942F01BE
:1003D0008BE290E02BE230E0F90120812068FC0103
:1003E000208383E590E060E070E040E050E00E9410
:1003F0005E0688E790E060E070E040E050E00E9438
:100400005E0680E090E0AAE7B4E48F87988BA98B22
:10041000BA8B6F85788989899A8920E030E04AE72C
:1004200055E40E947B0ADC01CB018B8B9C8BAD8B4E
:10043000BE8B11E06B897C898D899E8920E030E03C
:1004400040E85FE30E94D50B88230CF010E01123F5
:1004500029F081E090E0988F8F8B46C011E06B8986
:100460007C898D899E8920E03FEF4FE757E40E9409
:10047000750B18160CF010E0112361F16F85788967
:1004800089899A8920E030E040E251E40E947B0AA9
:10049000DC01CB01BC01CD010E94A708DC01CB012E
:1004A000988F8F8B12C080E991E09A8F898F898D08
:1004B0009A8D8C01C8010197F1F78C011A8F098F71
:1004C0008F89988D0197988F8F8B8F89988D009742
:1004D00051F717C06B897C898D899E890E94A70876
:1004E000DC01CB01988F8F8B8F89988D9C8F8B8FA0
:1004F0008B8D9C8D8C01F8013197F1F78F011C8F4A
:100500000B8F0E94B406FFCFDF93CF93CDB7DEB73A
:10051000F894CF91DF910895DF93CF93CDB7DEB7F5
:100520007894CF91DF910895DF93CF9300D000D0DE
:10053000CDB7DEB79C838B838CE690E00E94450E9E
:100540009A83898389819A81FC0111821082898131
:100550009A812B813C81FC013383228389819A819A
:1005600086599F4FFC011182108289819A81FC017A
:10057000158214820F900F900F900F90CF91DF9102
:100580000895DF93CF9300D0CDB7DEB79A838983E8
:100590000F900F90CF91DF910895DF93CF9300D00C
:1005A000CDB7DEB79A8389830F900F90CF91DF91FB
:1005B0000895DF93CF9300D000D000D0CDB7DEB741
:1005C0009C838B837E836D834B815C812D813E81F7
:1005D000429FC001439F900D529F900D112485367C
:1005E00091051CF080E090E020C08CE690E00E9435
:1005F000450E9A83898389819A8121E030E0FC014C
:100600003183208389819A812D813E81FC0133834E
:10061000228389819A8186599F4FFC011182108221
:1006200089819A81FC011582148226960FB6F8946E
:10063000DEBF0FBECDBFCF91DF910895DF93CF9383
:10064000CDB7DEB728970FB6F894DEBF0FBECDBF8B
:100650009E838D8378876F8316C0409118015091D7
:1006600019012BE031E0429FC001439F900D529F42
:10067000900D112484539E4F22E030E0FC01318321
:1006800020830E9445058D819E81FC012481358156
:100690008D819E81FC014281538184E690E0BA0104
:1006A0000E94E70DAB01CA01019728173907ACF684
:1006B000F8941A8219828D819E8186599F4FFC0180
:1006C000208131818D819E81FC01628173818D81C8
:1006D0009E81FC0144815581649FC001659F900DFE
:1006E000749F900D1124820F931F9C838B8322C0D3
:1006F0008B819C818436910511F41C821B822F8191
:10070000388589819A81820F931FFC0140812D8158
:100710003E818B819C81820F931F0696FC01408352
:1007200089819A8101969A8389838B819C81019624
:100730009C838B838D819E81FC0122813381898101
:100740009A8182179307A4F28D819E81FC01848196
:1007500095819C012F5F3F4F8D819E81FC013583E8
:100760002483789428960FB6F894DEBF0FBECDBFD1
:10077000CF91DF910895DF93CF9300D000D0CDB714
:10078000DEB79C838B838B819C8186599F4FFC01B4
:10079000808191819A83898316C04091180150917C
:1007A00019012BE031E0429FC001439F900D529F01
:1007B000900D112484539E4F22E030E0FC013183E0
:1007C00020830E9445058B819C81FC018481958159
:1007D000009719F3F8948B819C8186599F4FFC01F7
:1007E000808191819C018B819C81FC01828193811C
:1007F000820F931F9C018B819C8186599F4FFC0126
:10080000318320838B819C8186599F4FFC0180819D
:10081000918124E630E0B9010E94E70D9C018B81B3
:100820009C8186599F4FFC01318320838B819C8161
:100830009C012A5F3F4F89819A81820F931F0F90FD
:100840000F900F900F90CF91DF910895DF93CF938A
:1008500000D0CDB7DEB79A83898389819A810E94BF
:10086000DF0E0F900F90CF91DF910895DF93CF931C
:1008700000D0CDB7DEB79A838983F89489819A81B5
:10088000909319018093180140911801509119011A
:100890002BE031E0429FC001439F900D529F900D8D
:1008A000112484539E4F21E030E0FC0131832083EA
:1008B00040911801509119012BE031E0429FC00195
:1008C000439F900D529F900D1124865F9E4F84533D
:1008D0009E4FAA2797FDA095BA2F8093C6019093AB
:1008E000C701A093C801B093C901A091C601B091FE
:1008F000C701ADBFBEBF7894409118015091190156
:100900002BE031E0429FC001439F900D529F900D1C
:10091000112480539E4FFC01208131816091180188
:10092000709119014BE051E0649FC001659F900DEB
:10093000749F900D11248E529E4FFC0180819181F5
:10094000F90109950F900F90CF91DF910895DF93F2
:10095000CF93CDB7DEB7F894CF91DF910895DF93B1
:10096000CF93CDB7DEB77894CF91DF910895DF9321
:10097000CF93CDB7DEB780911801909119018530E2
:10098000910544F480911801909119012FEF8F3F48
:1009900092074CF48BE290E02BE230E0F9012081E9
:1009A0002061FC012083809118019091190101962A
:1009B0009093CB018093CA0124C04091CA01509109
:1009C000CB012BE031E0429FC001439F900D529F2D
:1009D000900D112484539E4FFC01808191818230BF
:1009E000910551F48091CA019091CB0101969093A9
:1009F000CB018093CA0105C08091CA019091CB01BF
:100A000041C02091CA013091CB0180912A0190917F
:100A10002B01281739078CF21092CB011092CA01D2
:100A200024C04091CA015091CB012BE031E0429F9C
:100A3000C001439F900D529F900D112484539E4FEF
:100A4000FC01808191818230910551F48091CA012D
:100A50009091CB0101969093CB018093CA0105C080
:100A60008091CA019091CB010DC02091CA013091B3
:100A7000CB018091180190911901281739078CF248
:100A80008FEF9FEFCF91DF910895809118019091A2
:100A9000190199230CF4089580911801909119017E
:100AA0008530910544F480911801909119012FEF40
:100AB0008F3F92075CF48BE290E02BE230E0F9018B
:100AC00020812061FC012083089514C080911801C9
:100AD00090911901FFEF8F3F9F0711F408950AC00D
:100AE0008BE290E02BE230E0F901308120E4232713
:100AF000FC0120830E94B704909317018093160194
:100B0000809116019091170199230CF40895F8949F
:100B10000F920FB60F921F9211242F923F924F9275
:100B20005F926F927F928F929F92AF92BF92CF927D
:100B3000DF92EF92FF920F931F932F933F934F9368
:100B40005F936F937F938F939F93AF93BF93CF9355
:100B5000DF93EF93FF93ADB7BEB7B093C701A093F8
:100B6000C60160911801709119018091C6019091A0
:100B7000C701A091C801B091C9014BE051E0649F49
:100B80009001659F300D749F300D11242C523E4F03
:100B9000F90180839183A283B383809116019091A0
:100BA0001701909319018093180180911801909179
:100BB0001901AC012BE031E0429FC001439F900D31
:100BC000529F900D112484539E4F9A83898389816B
:100BD0009A81FC0180819181009709F44AC040917B
:100BE0001801509119012BE031E0429FC001439F51
:100BF000900D529F900D11248C529E4FFC018081CC
:100C00009181A281B3818093C6019093C701A09383
:100C1000C801B093C9018091C6019091C701A0910C
:100C2000C801B091C9018DBF9EBFFF91EF91DF91C7
:100C3000CF91BF91AF919F918F917F916F915F9174
:100C40004F913F912F911F910F91FF90EF90DF9067
:100C5000CF90BF90AF909F908F907F906F905F905C
:100C60004F903F902F901F900F900FBE0F90789451
:100C700006C080911801909119010E9436040895D0
:100C8000F8940E9445051895DF93CF93CDB7DEB752
:100C900086E490E0FC01108287E490E024E6FC0109
:100CA000208384E490E022E0FC01208385E490E04E
:100CB00025E0FC012083CF91DF910895DF93CF934E
:100CC000CDB7DEB728970FB6F894DEBF0FBECDBF05
:100CD0009C838B837E836D8358874F8380912A0109
:100CE00090912B01843091051CF08FEF9FEF33C062
:100CF00080912A0190912B01BC014BE051E0649F4F
:100D00009001659F300D749F300D112424533E4F88
:100D10003A832983019690932B0180932A0189813C
:100D20009A812B813C81FC013583248389819A81BE
:100D30002D813E81FC013383228389819A812F8119
:100D40003885FC013783268389819A81FC011182D1
:100D5000108280E090E028960FB6F894DEBF0FBEB8
:100D6000CDBFCF91DF910895DF93CF93CDB7DEB79D
:100D7000F89480912A0190912B010097A1F0109294
:100D80001901109218018EE690E02EE630E0F9018C
:100D900020812260FC01208380911801909119012B
:100DA0000E94360401C00000CF91DF910895DF93C7
:100DB000CF93CDB7DEB7F894109243061092420657
:100DC00010928706109286061092450610924406ED
:100DD00010923F0610923E06109241061092400675
:100DE00010923D0610923C0684EC90E027E6FC0150
:100DF000208385EC90E0FC01108282EC90E026E0FC
:100E0000FC01208381EC90E028E9FC01208380EC48
:100E100090E0FC0110827894CF91DF9108951F92A9
:100E20000F920FB60F9211242F933F935F936F93FE
:100E30007F938F939F93AF93BF93EF93FF93DF9332
:100E4000CF93CDB7DEB7F8948091420690914306D8
:100E5000009751F481EC90E021EC30E0F901208121
:100E60002F7BFC01208323C086EC90E02091440678
:100E7000309145062A5B394FF9012081FC0120831E
:100E80008091440690914506019620E430E0B90136
:100E90000E94E70D90934506809344068091420698
:100EA000909143060197909343068093420678946D
:100EB000CF91DF91FF91EF91BF91AF919F918F9172
:100EC0007F916F915F913F912F910F900FBE0F9087
:100ED0001F9018951F920F920FB60F9211242F9307
:100EE0003F935F936F937F938F939F93AF93BF9342
:100EF000EF93FF93DF93CF930F92CDB7DEB7F894C4
:100F000086EC90E0FC018081898380913C06909181
:100F10003D068038910504F580913E0690913F068C
:100F200084509A4F2981FC01208380913E06909144
:100F30003F06019620E830E0B9010E94E70D90934A
:100F40003F0680933E0680913C0690913D060196B7
:100F500090933D0680933C0678940F90CF91DF915B
:100F6000FF91EF91BF91AF919F918F917F916F9181
:100F70005F913F912F910F900FBE0F901F9018958A
:100F8000DF93CF9300D000D000D0CDB7DEB79C83E5
:100F90008B837E836D83F8941A82198223C08981A2
:100FA0009A812B813C81820F931F209140063091C2
:100FB000410624503A4FF9012081FC0120838091A1
:100FC000400690914106019620E830E0B9010E9468
:100FD000E70D909341068093400689819A8101969E
:100FE0009A83898380913C0690913D0629813A81BC
:100FF00028173907A4F280914006909141062B8171
:101000003C81820F931FFC01108220913C0630919D
:101010003D068D819E81FC013183208310923D0627
:1010200010923C06789426960FB6F894DEBF0FBE59
:10103000CDBFCF91DF9108950F931F93DF93CF938F
:1010400000D000D0CDB7DEB79C838B83F8941A8292
:10105000198262C0809186069091870629813A8123
:101060004B815C81240F351FF90120818A5B994FE8
:10107000FC0120838091860690918706019620E4EA
:1010800030E0B9010E94E70D9093870680938606B1
:101090008091420690914306019690934306809377
:1010A000420681EC90E0FC018081882F90E0807402
:1010B0009070009761F586EC90E0209144063091A5
:1010C00045062A5B394FF9012081FC01208380917C
:1010D000440690914506019620E430E0B9010E9453
:1010E000E70D9093450680934406809142069091C7
:1010F00043060197909343068093420681EC90E06B
:1011000021EC30E0F90120812064FC0120838981F9
:101110009A8101969A83898309811A818B819C81A6
:101120000E94780F0817190740F4809142069091A9
:101130004306803491050CF48DCF78940F900F9076
:101140000F900F90CF91DF911F910F910895EF9223
:10115000FF920F931F937B018C0120E030E040E071
:101160005FE40E94A50B87FD11C0C801B70120E014
:1011700030E040E05FE40E944A0A0E94050C9B01B7
:10118000AC01205030404040504806C0C801B70173
:101190000E94050C9B01AC01B901CA011F910F917E
:1011A000FF90EF900895A0E0B0E0E9EDF8E00C9436
:1011B000120EFC01EA018081823008F438C1DB01A3
:1011C0009C91923008F430C1843059F4943009F085
:1011D0002EC1918111968C911197981709F021C118
:1011E00026C1943009F420C19230B1F4823009F064
:1011F0001EC1CA01AF0128E0DA010D90AD01DC018A
:101200000D92CD012150C1F7DB0111968C91119700
:101210009181892389830AC1823009F405C1C28082
:10122000D380DB0112966D907C90139724813581D9
:10123000468157811496ED90FD900D911C91179762
:10124000C601861997095C0197FF04C0AA24BB2434
:10125000A81AB90AB0E2AB16B1040CF061C01816B6
:1012600019066CF5370148010A2C04C0969487943E
:10127000779467940A94D2F781E090E0A0E0B0E020
:101280000A2C04C0880F991FAA1FBB1F0A94D2F70B
:101290000197A109B1098E219F21A023B123EE243A
:1012A000FF248701E3940097A105B10519F4EE240A
:1012B000FF248701E628F728082919293CC0009750
:1012C000D1F1CA0CDB1C39014A010A2C04C09694E6
:1012D0008794779467940A94D2F781E090E0A0E035
:1012E000B0E00A2C04C0880F991FAA1FBB1F0A94E4
:1012F000D2F70197A109B10982239323A423B5232F
:1013000021E030E040E050E00097A105B10519F47C
:1013100020E030E0A90126293729482959290BC0A6
:101320006C147D0424F4EE24FF24870104C06301BF
:1013300020E030E0A9018181FB019181891709F446
:1013400045C0882349F0D801C701821B930BA40B29
:10135000B50B9C01AD0104C02E193F09400B510B88
:1013600057FD04C01982DB82CA820BC081E08983E9
:10137000DB82CA8250954095309521953F4F4F4F63
:101380005F4F2C833D834E835F830DC0880F991F71
:10139000AA1FBB1F8C839D83AE83BF838A819B81E1
:1013A00001979B838A838C819D81AE81BF819C0143
:1013B000AD0121503040404050402F3FEFEF3E07FD
:1013C000EFEF4E07EFE35E0708F30BC08983DB8284
:1013D000CA822E0D3F1D401F511F2C833D834E831B
:1013E0005F8383E088832C813D814E815F8157FF3D
:1013F0001DC0DA01C90181709070A070B07056955F
:10140000479537952795822B932BA42BB52B8C834F
:101410009D83AE83BF838A819B8101969B838A8350
:1014200005C0EAE1F1E003C0FB0101C0FE01CF010C
:10143000CDB7DEB7EEE00C942E0EA0E2B0E0E3E212
:10144000FAE00C941A0E69837A838B839C832D8334
:101450003E834F83588789E0E82EF12CEC0EFD1E69
:10146000CE010196B7010E94250D8E010F5E1F4F20
:10147000CE010596B8010E94250DC701B801AE0145
:10148000475E5F4F0E94D3080E94570CA096E6E08B
:101490000C94360EA0E2B0E0E0E5FAE00C941A0EEF
:1014A00069837A838B839C832D833E834F83588704
:1014B0008E01075F1F4FCE010196B8010E94250DD6
:1014C00091E1E92EF12CEC0EFD1ECE010596B7013F
:1014D0000E94250D8A8991E089278A8BC801B7016E
:1014E000AE01475E5F4F0E94D3080E94570CA09642
:1014F000E6E00C94360EA0E2B0E0E1E8FAE00C94ED
:101500000E0E69837A838B839C832D833E834F8366
:101510005887CE010196BE01675F7F4F0E94250D5F
:10152000CE010596BE016F5E7F4F0E94250D998505
:10153000923078F089898230C0F0943019F482308A
:1015400041F4CBC0843019F4923079F4C6C09230A3
:1015500051F481E02A859A89291709F480E08A8765
:10156000CE010996BCC0823051F481E02A859A8967
:10157000291709F480E08A8BCE014196B0C06D84B2
:101580007E848F849888ED88FE880F89188DE0E22C
:10159000F0E080E090E0DC01AA24BB24650120E0BB
:1015A00030E0A901B3016170707061157105D1F06F
:1015B0002E0D3F1D401F511F15012601280E391EFB
:1015C0004A1E5B1E81E090E0A0E0B0E02E153F05D2
:1015D0004007510718F080E090E0DC01820D931D78
:1015E000A41DB51DAA0CBB1CCC1CDD1C17FF09C01B
:1015F00061E0262E312C412C512CA228B328C4287E
:10160000D528319749F0EE0CFF1C001F111F96944E
:10161000879477946794C6CF6B897C89EB85FC852A
:101620006E0F7F1F6E5F7F4F7C8F6B8F61E0EA854F
:101630007A89E71709F460E06A8F6B8D7C8D10C0A2
:10164000FC01E170F070309729F056954795379579
:1016500027955068B695A795979587956F5F7F4FAB
:10166000B7FDEECF0CC0880F991FAA1FBB1F57FDF7
:101670008160220F331F441F551F6150704080301E
:10168000E0E09E07E0E0AE07E0E4BE0760F36B8FAA
:101690007C8F6FE7E62EF12C012D112DE822F92227
:1016A0000A231B2360E4E616F1040105110561F429
:1016B00087FD0AC0211531054105510529F0805CDF
:1016C0009F4FAF4FBF4F80788D8F9E8FAF8FB8A346
:1016D00083E0898FCE01499602C08AE191E00E94A1
:1016E000570CA096E2E10C942A0EA8E1B0E0EBE7DB
:1016F000FBE00C941A0E69837A838B839C832D8381
:101700003E834F8358878E01075F1F4FCE0101969E
:10171000B8010E94250D81E1E82EF12CEC0EFD1E92
:10172000CE010596B7010E94250D8985823040F0D3
:101730008989823028F0C801B7010E948E0D01C04E
:101740008FEF6896E6E00C94360EA8E1B0E0EBEA85
:10175000FBE00C941A0E69837A838B839C832D8320
:101760003E834F8358878E01075F1F4FCE0101963E
:10177000B8010E94250D81E1E82EF12CEC0EFD1E32
:10178000CE010596B7010E94250D8985823040F073
:101790008989823028F0C801B7010E948E0D01C0EE
:1017A0008FEF6896E6E00C94360EA8E1B0E0EBED22
:1017B000FBE00C941A0E69837A838B839C832D83C0
:1017C0003E834F8358878E01075F1F4FCE010196DE
:1017D000B8010E94250D81E1E82EF12CEC0EFD1ED2
:1017E000CE010596B7010E94250D8985823040F013
:1017F0008989823028F0C801B7010E948E0D01C08E
:1018000081E06896E6E00C94360EACE0B0E0EBE0E8
:10181000FCE00C941E0E69837A838B839C83CE013B
:101820000196BE016B5F7F4F0E94250D8D81823036
:1018300081F1823070F1843021F48E81882369F146
:101840000AC02F81388537FD24C06E812F313105C4
:101850003CF0662311F120E030E040E050E821C088
:101860008EE190E0821B930B29853A854B855C8540
:1018700004C056954795379527958A95D2F76623E4
:1018800081F050954095309521953F4F4F4F5F4FD8
:1018900008C020E030E0A90104C02FEF3FEF4FEF78
:1018A0005FE7B901CA012C96E2E00C943A0EEF9280
:1018B000FF920F931F93CF93DF93FC012481358117
:1018C0004681578161818081823020F44061EFEF51
:1018D000F0E0A3C0843009F49BC0823009F492C0C8
:1018E000211531054105510509F48FC00280F381AE
:1018F000E02D8FEFE238F8070CF05AC0C2E8DFEFB6
:10190000CE1BDF0BCA31D1056CF579018A010C2E93
:1019100004C016950795F794E7940A94D2F781E0EE
:1019200090E0A0E0B0E00C2E04C0880F991FAA1F21
:10193000BB1F0A94D2F70197A109B109822393230F
:10194000A423B52321E030E040E050E00097A1055A
:10195000B10519F420E030E0A9012E293F29402BE0
:10196000512B03C020E030E0A901DA01C9018F77D3
:101970009070A070B07080349105A105B10539F464
:1019800027FF09C0205C3F4F4F4F5F4F04C0215CD1
:101990003F4F4F4F5F4FE1E0F0E0203080E03807ED
:1019A00080E0480780E4580728F5E0E0F0E022C036
:1019B000E038F1056CF5E158FF4FDA01C9018F7786
:1019C0009070A070B07080349105A105B10539F414
:1019D00027FF09C0205C3F4F4F4F5F4F04C0215C81
:1019E0003F4F4F4F5F4F57FF05C05695479537956F
:1019F0002795319687E056954795379527958A958F
:101A0000D1F70BC0E0E0F0E005C0E0E0F0E005C099
:101A1000EFEFF0E020E030E0A9018E2F87958827D6
:101A20008795942F9F77679566276795E695E22EB1
:101A3000A92FA82BFE2FF62B622F732F8A2F9F2FF3
:101A4000CDB7DEB7E6E00C94360EDC01FB012C913D
:101A500011963C91119712968C911297482F4F77BF
:101A600050E0982F991F9927991F13966C911397FF
:101A7000862F880F892B90E0661F6627661F61837B
:101A8000009739F5211531054105510511F482E022
:101A900029C082E89FEF9383828367E0220F331F80
:101AA000441F551F6A95D1F783E0808309C0220F38
:101AB000331F441F551F8281938101979383828333
:101AC000203080E0380780E0480780E4580778F34A
:101AD00020C08F3F910579F421153105410551054D
:101AE00019F484E08083089544FF03C081E080837B
:101AF00010C010820EC08F5790409383828383E082
:101B0000808387E0220F331F441F551F8A95D1F72A
:101B1000506424833583468357830895FC01DB0199
:101B20009081923008F449C08C91823008F445C00D
:101B3000943051F461818430B1F511962C91119754
:101B400030E0261B310941C0843021F0923041F44D
:101B50008230B1F111968C9111978823A1F12DC09B
:101B60006181823001F111968C9111976817D9F437
:101B70002281338112968D919C911397821793073E
:101B800094F028173907BCF02481358146815781AC
:101B900014968D919D910D90BC91A02D8217930765
:101BA000A407B50718F4662341F00DC028173907BC
:101BB0004A075B0728F4662331F021E030E005C0D6
:101BC00020E030E002C02FEF3FEFC901089597FBFE
:101BD000092E07260AD077FD04D00CD006D00020AD
:101BE0001AF4709561957F4F0895F6F79095819559
:101BF0009F4F0895AA1BBB1B51E107C0AA1FBB1F23
:101C0000A617B70710F0A61BB70B881F991F5A9588
:101C1000A9F780959095BC01CD0108952F923F9230
:101C20004F925F926F927F928F929F92AF92BF92EC
:101C3000CF92DF92EF92FF920F931F93CF93DF9398
:101C4000CDB7DEB7CA1BDB0B0FB6F894DEBF0FBEF5
:101C5000CDBF09942A88398848885F846E847D8442
:101C60008C849B84AA84B984C884DF80EE80FD8044
:101C70000C811B81AA81B981CE0FD11D0FB6F894BA
:101C8000DEBF0FBECDBFED010895CF93DF9382304D
:101C9000910510F482E090E0E0918A06F0918B06C5
:101CA00040E050E020E030E026C06081718168179C
:101CB0007907E0F06817790781F482819381211513
:101CC000310531F0D90113969C938E9312972BC056
:101CD00090938B0680938A0626C04115510519F012
:101CE0006417750718F4AB01E901DF019F017281E8
:101CF0006381E72FF62F3097C1F64115510501F1A9
:101D0000481B590B4430510580F412968D919C91DB
:101D10001397209719F09B838A8304C090938B06B6
:101D200080938A06FD01329646C0FD01E40FF51F3F
:101D3000819391934250504011965C934E933BC0D7
:101D400020918806309189062115310541F42091B2
:101D50002401309125013093890620938806209133
:101D60002601309127012115310541F42DB73EB7E9
:101D70004091220150912301241B350BE0918806EC
:101D8000F0918906E217F307A0F42E1B3F0B2817EA
:101D9000390778F0AC014E5F5F4F2417350748F0E4
:101DA0004E0F5F1F5093890640938806819391934D
:101DB00002C0E0E0F0E0CF01DF91CF910895CF9332
:101DC000DF93009709F491C0FC01329713821282CD
:101DD00060918A0670918B066115710581F42081EE
:101DE0003181280F391F80918806909189068217CA
:101DF000930799F5F0938906E093880676C0DB0196
:101E000080E090E002C0CD01D901AE17BF0748F4D1
:101E100012962D913C91139721153105A1F7CD0113
:101E200021C0B383A283EF01499159919E01240FF0
:101E3000351FA217B30779F42D913C911197240F08
:101E4000351F2E5F3F4F3183208312962D913C9199
:101E5000139733832283009729F4F0938B06E09342
:101E60008A0643C0DC011396FC93EE9312974D91C2
:101E70005D91A40FB51FEA17FB0769F4208131813A
:101E8000240F351F2E5F3F4FEC01398328832281B9
:101E900033813B832A83E0E0F0E002C0FB01BC0118
:101EA000DB0112968D919C9113970097B9F79B01D6
:101EB0002E5F3F4F8D919C911197820F931F409100
:101EC0008806509189064817590779F4309729F404
:101ED00010928B0610928A0602C013821282225040
:101EE00030403093890620938806DF91CF91089582
:101EF000FC0101900020E9F7809590958E0F9F1FBF
:061F00000895F894FFCFE4
:101F06006C75616C6C610A0D0068456C6C6F205EC7
:101F16005F5E210A0D00FFFFFFFF000000000000CA
:081F2600000020008C06000001
:00000001FF
