:100000000C9434000C9451000C9451000C94510049
:100010000C9451000C9451000C9451000C9451001C
:100020000C9451000C9451000C9451000C9451000C
:100030000C9451000C9451000C94F4040C94510055
:100040000C9451000C9451000C9416060C94510021
:100050000C94BB050C9451000C9451000C9451006D
:100060000C9451000C94510011241FBECFEFD8E026
:10007000DEBFCDBF12E0A0E0B1E0E8ECFCE102C0E1
:1000800005900D92A031B107D9F717E0A0E1B2E0D9
:1000900001C01D92A235B107E1F70E940A030C943A
:1000A000620E0C9400000F931F93DF93CF93CDB794
:1000B000DEB7A2970FB6F894DEBF0FBECDBF9AA3EE
:1000C00089A382E090E09A83898389A19AA1909381
:1000D00001018093000184E290E024E230E0F90124
:1000E00020812062FC0120832091000130910101D8
:1000F00088EE93E0B9010E94FB0D9B013C832B83AA
:100100000E94C40385E290E025E230E0F9012081FD
:100110002062FC0120838B819C81AA2797FDA095FA
:10012000BA2FBC01CD010E945F0BDC01CB018D8396
:100130009E83AF83B8876D817E818F81988520E013
:1001400030E04AE755E40E942709DC01CB018987AA
:100150009A87AB87BC8711E069857A858B859C85FA
:1001600020E030E040E85FE30E942F0B88230CF092
:1001700010E0112329F081E090E09E878D8746C032
:1001800011E069857A858B859C8520E03FEF4FE7FC
:1001900057E40E94CF0A18160CF010E0112361F109
:1001A0006D817E818F81988520E030E040E251E4CE
:1001B0000E942709DC01CB01BC01CD010E9453073D
:1001C000DC01CB019E878D8712C080E991E0988B7E
:1001D0008F878F8598898C01C8010197F1F78C0171
:1001E000188B0F878D859E8501979E878D878D85BE
:1001F0009E85009751F717C069857A858B859C8508
:100200000E945307DC01CB019E878D878D859E85DB
:100210009A8B898B89899A898C01F8013197F1F73A
:100220008F011A8B098B85E290E025E230E0F9011D
:1002300020812F7DFC0120838B819C81AA2797FD43
:10024000A095BA2FBC01CD010E945F0BDC01CB0150
:100250008B8B9C8BAD8BBE8B6B897C898D899E89AA
:1002600020E030E04AE755E40E942709DC01CB0199
:100270008F8B988FA98FBA8F11E06F89788D898DB8
:100280009A8D20E030E040E85FE30E942F0B882346
:100290000CF010E0112329F081E090E09C8F8B8F0F
:1002A00046C011E06F89788D898D9A8D20E03FEFEF
:1002B0004FE757E40E94CF0A18160CF010E0112304
:1002C00061F16B897C898D899E8920E030E040E274
:1002D00051E40E942709DC01CB01BC01CD010E9441
:1002E0005307DC01CB019C8F8B8F12C080E991E01A
:1002F0009E8F8D8F8D8D9E8D8C01C8010197F1F79A
:100300008C011E8F0D8F8B8D9C8D01979C8F8B8FF9
:100310008B8D9C8D009751F717C06F89788D898DD3
:100320009A8D0E945307DC01CB019C8F8B8F8B8DA4
:100330009C8D98A38F8F8F8D98A18C01F801319798
:10034000F1F78F0118A30F8F0E94CC03CDCEDF935E
:10035000CF9300D000D0CDB7DEB79C838B830E94B3
:10036000C4038CE790E02CE730E0F9012081287F7E
:10037000FC0120838CE790E02CE730E0F90120813C
:100380002160FC0120838AE790E02AE730E0F90150
:1003900020812064FC01208300008AE790E0FC01BA
:1003A0008081882F90E0A0E0B0E080709070A07015
:1003B000B1700097A105B10581F788E790E0FC01D5
:1003C0008081682F70E089E790E0FC018081282F10
:1003D00030E0C901AC01440F551FCA019695982F12
:1003E000882797958795841B950B820F931F860FFF
:1003F000971F9A8389838AE790E02AE730E0F90122
:1004000020812061FC01208389819A8195958795BF
:100410009595879590930301809302010E94CC03E8
:100420009ECFDF93CF9300D000D0CDB7DEB79C83B3
:100430008B830E94C4038CE790E02CE730E0F90145
:100440002081287FFC0120838AE790E02AE730E0C2
:10045000F90120812064FC01208300008AE790E0FC
:10046000FC018081882F90E0A0E0B0E08070907067
:10047000A070B1700097A105B10581F788E790E001
:10048000FC018081682F70E089E790E0FC018081A9
:10049000282F30E0C901AC01440F551FCA019695C1
:1004A000982F882797958795841B950B820F931F0C
:1004B000860F971F9A8389838AE790E02AE730E0C6
:1004C000F90120812061FC01208389819A8199238F
:1004D00054F48BE290E02BE230E0F901308120E22D
:1004E0002327FC01208389819A81F1E0823C9F07C8
:1004F0003CF481E090E090930101809300012CC0D6
:1005000089819A81825C9140AA2797FDA095BA2F94
:10051000BC01CD010E945F0BDC01CB01BC01CD0110
:1005200020E030E04AEF53E40E942709DC01CB01D0
:10053000BC01CD0120E030E04FEA53E40E94210AE3
:10054000DC01CB01BC01CD010E94BF0BDC01CB0162
:1005500090930101809300010E94CC036ACFDF9346
:10056000CF9300D0CDB7DEB79A83898384E290E041
:1005700024E230E0F90120812860FC01208382EB35
:1005800090E0FC01108283EB90E0FC01108280EB94
:1005900090E021E8FC01208381EB90E024E0FC0165
:1005A000208383EB90E02091020130910301FC0154
:1005B0002083F7CFDF93CF93CDB7DEB78AE290E009
:1005C0002AE230E0F9012081206FFC01208384E6DB
:1005D00090E024E630E0F90120812E7FFC012083A9
:1005E0008AE790E026E8FC0120838CE790E02CE786
:1005F00030E0F90120812F77FC0120838CE790E027
:100600002CE730E0F90120812064FC012083CF91A8
:10061000DF910895DF93CF93CDB7DEB7C258D040B6
:100620000FB6F894DEBF0FBECDBF1B821C821D82A9
:100630001E822CE7CE010796FC01322F11923A95CB
:10064000E9F78FEF9FEF9A8389830E948305F894DF
:100650000E94F8040E94DA02809100019091010149
:100660009C0183E590E060E070E0A9010E94120522
:1006700087EA91E061E070E040E050E00E941205FE
:1006800081E192E062E070E040E050E00E941205FB
:100690008FEA92E063E070E040E050E00E941205D3
:1006A0000E946805FFCFDF93CF9300D0CDB7DEB7B0
:1006B0009A838983F89489819A8190930701809322
:1006C000060140910601509107012BE031E0429F65
:1006D000C001439F900D529F900D11248A569D4F4B
:1006E00021E030E0FC0131832083409106015091EC
:1006F00007012BE031E0429FC001439F900D529FC4
:10070000900D1124865F9E4F8A569D4FAA2797FD14
:10071000A095BA2F8093920290939302A093940293
:10072000B0939502A0919202B0919302ADBFBEBF6B
:10073000789440910601509107012BE031E0429FEF
:10074000C001439F900D529F900D112486569D4FDE
:10075000FC012081318160910601709107014BE01D
:1007600051E0649FC001659F900D749F900D11240E
:1007700084569D4FFC0180819181F90109950F906C
:100780000F90CF91DF910895DF93CF93CDB7DEB770
:10079000F894CF91DF910895DF93CF93CDB7DEB773
:1007A0007894CF91DF910895DF93CF93CDB7DEB7E3
:1007B0008091100290911102009719F48FEF9FEF32
:1007C00026C080910601909107019923A4F04091E1
:1007D0000601509107012BE031E0429FC001439F89
:1007E000900D529F900D11248A569D4F21E030E0CC
:1007F000FC013183208380910601909107010196CD
:100800002091100230911102B9010E94FB0DCF918D
:10081000DF9108958091060190910701853091053F
:1008200044F480910601909107012FEF8F3F9207CA
:1008300064F48BE290E02BE230E0F901308120E1BA
:100840002327FC012083089509C08091060190911F
:100850000701FFEF8F3F9F0709F408950E94D4031B
:10086000909305018093040180910401909105010A
:1008700099230CF40895F8940F920FB60F921F92DB
:1008800011242F923F924F925F926F927F928F929C
:100890009F92AF92BF92CF92DF92EF92FF920F930F
:1008A0001F932F933F934F935F936F937F938F93F8
:1008B0009F93AF93BF93CF93DF93EF93FF93ADB726
:1008C000BEB7B0939302A09392026091060170911B
:1008D00007018091920290919302A0919402B091AD
:1008E00095024BE051E0649F9001659F300D749F2D
:1008F000300D112422563D4FF90180839183A2834C
:10090000B383809104019091050190930701809336
:1009100006018091060190910701AC012BE031E0C6
:10092000429FC001439F900D529F900D11248A5603
:100930009D4F9A83898389819A81FC01808191816D
:10094000009709F44AC040910601509107012BE03D
:1009500031E0429FC001439F900D529F900D1124A2
:1009600082569D4FFC0180819181A281B381809349
:10097000920290939302A0939402B0939502809177
:10098000920290919302A0919402B09195028DBF32
:100990009EBFFF91EF91DF91CF91BF91AF919F915A
:1009A0008F917F916F915F914F913F912F911F9107
:1009B0000F91FF90EF90DF90CF90BF90AF909F90FE
:1009C0008F907F906F905F904F903F902F901F90EF
:1009D0000F900FBE0F90789406C080910601909101
:1009E00007010E9453030895F8940E940A04189581
:1009F000DF93CF93CDB7DEB786E490E0FC011082A1
:100A000087E490E024E6FC01208384E490E022E087
:100A1000FC01208385E490E025E0FC012083CF9158
:100A2000DF910895DF93CF93CDB7DEB728970FB648
:100A3000F894DEBF0FBECDBF9C838B837E836D8316
:100A400058874F8380911002909111028430910554
:100A50001CF08FEF9FEF33C0809110029091110234
:100A6000BC014BE051E0649F9001659F300D749F85
:100A7000300D11242A563D4F3A83298301969093D5
:100A800011028093100289819A812B813C81FC01A3
:100A90003583248389819A812D813E81FC013383B2
:100AA000228389819A812F813885FC0137832683AF
:100AB00089819A81FC011182108280E090E0289661
:100AC0000FB6F894DEBF0FBECDBFCF91DF91089572
:100AD000DF93CF93CDB7DEB78EE690E02EE630E021
:100AE000F90120812260FC01208378941092070193
:100AF0001092060180910601909107010E94530314
:100B0000CF91DF910895DF93CF93CDB7DEB7F894FF
:100B100010920D0710920C07109251071092500777
:100B200010920F0710920E071092090710920807F3
:100B300010920B0710920A071092070710920607EF
:100B400084EC90E027E6FC01208385EC90E0FC013A
:100B5000108282EC90E026E0FC01208381EC90E0A2
:100B600028E9FC01208380EC90E0FC01108278945D
:100B7000CF91DF9108951F920F920FB60F9211241B
:100B80002F933F935F936F937F938F939F93AF9335
:100B9000BF93EF93FF93DF93CF93CDB7DEB7F89476
:100BA00080910C0790910D07009751F481EC90E033
:100BB00021EC30E0F90120812F7BFC01208323C050
:100BC00086EC90E020910E0730910F07205F384FA0
:100BD000F9012081FC01208380910E0790910F077D
:100BE000019620E430E0B9010E94FB0D90930F07BD
:100BF00080930E0780910C0790910D0701979093B9
:100C00000D0780930C077894CF91DF91FF91EF91BE
:100C1000BF91AF919F918F917F916F915F913F9124
:100C20002F910F900FBE0F901F9018951F920F924B
:100C30000FB60F9211242F933F935F936F937F937F
:100C40008F939F93AF93BF93EF93FF93DF93CF93D4
:100C50000F92CDB7DEB7F89486EC90E0FC0180816E
:100C6000898380910607909107078038910504F5E4
:100C700080910807909109078A53994F2981FC01B7
:100C800020838091080790910907019620E830E0C1
:100C9000B9010E94FB0D909309078093080780918A
:100CA0000607909107070196909307078093060720
:100CB00078940F90CF91DF91FF91EF91BF91AF9119
:100CC0009F918F917F916F915F913F912F910F90A5
:100CD0000FBE0F901F901895DF93CF9300D000D0D8
:100CE00000D0CDB7DEB79C838B837E836D83F89471
:100CF0001A82198223C089819A812B813C81820FBB
:100D0000931F20910A0730910B072A53394FF9019D
:100D10002081FC01208380910A0790910B070196A6
:100D200020E830E0B9010E94FB0D90930B078093FF
:100D30000A0789819A8101969A838983809106079F
:100D40009091070729813A8128173907A4F28091E9
:100D50000A0790910B072B813C81820F931FFC01A6
:100D6000108220910607309107078D819E81FC013A
:100D700031832083109207071092060778942696F5
:100D80000FB6F894DEBF0FBECDBFCF91DF910895AF
:100D90000F931F93DF93CF9300D000D0CDB7DEB772
:100DA0009C838B83F8941A82198262C080915007C9
:100DB0009091510729813A814B815C81240F351F25
:100DC000F9012081805F984FFC01208380915007BA
:100DD00090915107019620E430E0B9010E94FB0D8B
:100DE000909351078093500780910C0790910D07C5
:100DF000019690930D0780930C0781EC90E0FC0125
:100E00008081882F90E080749070009761F586EC67
:100E100090E020910E0730910F07205F384FF901C5
:100E20002081FC01208380910E0790910F0701968D
:100E300020E430E0B9010E94FB0D90930F078093EE
:100E40000E0780910C0790910D07019790930D0765
:100E500080930C0781EC90E021EC30E0F9012081D7
:100E60002064FC01208389819A8101969A83898379
:100E700009811A818B819C810E94590E08171907DC
:100E800040F480910C0790910D07803491050CF48B
:100E90008DCF78940F900F900F900F90CF91DF919E
:100EA0001F910F910895EF92FF920F931F937B0173
:100EB0008C0120E030E040E05FE40E94FF0A87FD03
:100EC00011C0C801B70120E030E040E05FE40E94BB
:100ED000F6080E94BF0B9B01AC01205030404040FF
:100EE000504806C0C801B7010E94BF0B9B01AC016E
:100EF000B901CA011F910F91FF90EF900895A0E0F2
:100F0000B0E0E5E8F7E00C94260EFC01EA018081F0
:100F1000823008F438C1DB019C91923008F430C172
:100F2000843059F4943009F02EC1918111968C913E
:100F30001197981709F021C126C1943009F420C1F6
:100F40009230B1F4823009F01EC1CA01AF0128E02D
:100F5000DA010D90AD01DC010D92CD012150C1F7F8
:100F6000DB0111968C9111979181892389830AC1A4
:100F7000823009F405C1C280D380DB0112966D90E6
:100F80007C90139724813581468157811496ED908A
:100F9000FD900D911C911797C601861997095C0168
:100FA00097FF04C0AA24BB24A81AB90AB0E2AB1662
:100FB000B1040CF061C0181619066CF53701480130
:100FC0000A2C04C096948794779467940A94D2F775
:100FD00081E090E0A0E0B0E00A2C04C0880F991FE7
:100FE000AA1FBB1F0A94D2F70197A109B1098E214C
:100FF0009F21A023B123EE24FF248701E3940097CF
:10100000A105B10519F4EE24FF248701E628F7288D
:10101000082919293CC00097D1F1CA0CDB1C390101
:101020004A010A2C04C096948794779467940A9492
:10103000D2F781E090E0A0E0B0E00A2C04C0880F75
:10104000991FAA1FBB1F0A94D2F70197A109B109E2
:1010500082239323A423B52321E030E040E050E035
:101060000097A105B10519F420E030E0A901262977
:101070003729482959290BC06C147D0424F4EE2427
:10108000FF24870104C0630120E030E0A9018181D1
:10109000FB019181891709F445C0882349F0D801E3
:1010A000C701821B930BA40BB50B9C01AD0104C0BF
:1010B0002E193F09400B510B57FD04C01982DB82EA
:1010C000CA820BC081E08983DB82CA825095409539
:1010D000309521953F4F4F4F5F4F2C833D834E837B
:1010E0005F830DC0880F991FAA1FBB1F8C839D8330
:1010F000AE83BF838A819B8101979B838A838C8186
:101100009D81AE81BF819C01AD01215030404040A6
:1011100050402F3FEFEF3E07EFEF4E07EFE35E0744
:1011200008F30BC08983DB82CA822E0D3F1D401F4E
:10113000511F2C833D834E835F8383E088832C8102
:101140003D814E815F8157FF1DC0DA01C901817069
:101150009070A070B0705695479537952795822B63
:10116000932BA42BB52B8C839D83AE83BF838A8165
:101170009B8101969B838A8305C0E8E0F1E003C070
:10118000FB0101C0FE01CF01CDB7DEB7EEE00C944C
:10119000420EA0E2B0E0EFECF8E00C942E0E698372
:1011A0007A838B839C832D833E834F83588789E08A
:1011B000E82EF12CEC0EFD1ECE010196B7010E9427
:1011C000390D8E010F5E1F4FCE010596B8010E94AA
:1011D000390DC701B801AE01475E5F4F0E947F071E
:1011E0000E946B0CA096E6E00C944A0EA0E2B0E0E0
:1011F000ECEFF8E00C942E0E69837A838B839C834A
:101200002D833E834F8358878E01075F1F4FCE018A
:101210000196B8010E94390D91E1E92EF12CEC0EF6
:10122000FD1ECE010596B7010E94390D8A8991E015
:1012300089278A8BC801B701AE01475E5F4F0E94C4
:101240007F070E946B0CA096E6E00C944A0EA0E289
:10125000B0E0EDE2F9E00C94220E69837A838B838F
:101260009C832D833E834F835887CE010196BE0118
:10127000675F7F4F0E94390DCE010596BE016F5EFC
:101280007F4F0E94390D9985923078F0898982309C
:10129000C0F0943019F4823041F4CBC0843019F49A
:1012A000923079F4C6C0923051F481E02A859A894F
:1012B000291709F480E08A87CE010996BCC08230E4
:1012C00051F481E02A859A89291709F480E08A8BF4
:1012D000CE014196B0C06D847E848F849888ED885D
:1012E000FE880F89188DE0E2F0E080E090E0DC01FC
:1012F000AA24BB24650120E030E0A901B30161709C
:10130000707061157105D1F02E0D3F1D401F511FEA
:1013100015012601280E391E4A1E5B1E81E090E051
:10132000A0E0B0E02E153F054007510718F080E01F
:1013300090E0DC01820D931DA41DB51DAA0CBB1C01
:10134000CC1CDD1C17FF09C061E0262E312C412C7E
:10135000512CA228B328C428D528319749F0EE0C87
:10136000FF1C001F111F9694879477946794C6CF33
:101370006B897C89EB85FC856E0F7F1F6E5F7F4FCD
:101380007C8F6B8F61E0EA857A89E71709F460E06A
:101390006A8F6B8D7C8D10C0FC01E170F07030970E
:1013A00029F056954795379527955068B695A79596
:1013B000979587956F5F7F4FB7FDEECF0CC0880F75
:1013C000991FAA1FBB1F57FD8160220F331F441FA7
:1013D000551F615070408030E0E09E07E0E0AE07AE
:1013E000E0E4BE0760F36B8F7C8F6FE7E62EF12C95
:1013F000012D112DE822F9220A231B2360E4E616B1
:10140000F1040105110561F487FD0AC021153105BC
:101410004105510529F0805C9F4FAF4FBF4F807849
:101420008D8F9E8FAF8FB8A383E0898FCE014996B1
:1014300002C088E091E00E946B0CA096E2E10C945F
:101440003E0EA8E1B0E0E7E2FAE00C942A0E6983D0
:101450007A838B839C832D833E834F8358878E01B1
:10146000075F1F4FCE010196B8010E94390D81E13F
:10147000E82EF12CEC0EFD1ECE010596B7010E9460
:10148000390D9985923008F483C08989823008F437
:101490007BC02A853A8923272A87943011F092301D
:1014A00021F4981709F06CC071C0843039F41D869E
:1014B0001E861F86188A1C861B866AC0823019F415
:1014C00084E0898765C08B859C852B893C89821B3C
:1014D000930B9C878B872D853E854F855889ED889A
:1014E000FE880F89188D2E153F054007510738F4E7
:1014F000220F331F441F551F01979C878B876FE175
:1015000070E0A12CB12CC12CA0E4DA2E80E090E098
:10151000DC012E153F054007510740F08A299B2921
:10152000AC29BD292E193F09400B510BD694C79405
:10153000B794A794220F331F441F551F615070406A
:1015400041F76FE7E62EF12C012D112DE822F9224B
:101550000A231B2360E4E616F1040105110561F47A
:1015600087FD0AC0211531054105510529F0805C30
:101570009F4FAF4FBF4F80788D879E87AF87B88BC7
:101580008E01075F1F4F04C0870102C008E011E011
:10159000C8010E946B0C6896EAE00C94460EA8E124
:1015A000B0E0E5EDFAE00C942E0E69837A838B832C
:1015B0009C832D833E834F8358878E01075F1F4F87
:1015C000CE010196B8010E94390D81E1E82EF12C7F
:1015D000EC0EFD1ECE010596B7010E94390D8985DE
:1015E000823040F08989823028F0C801B7010E941A
:1015F000A20D01C08FEF6896E6E00C944A0EA8E1B8
:10160000B0E0E5E0FBE00C942E0E69837A838B83D7
:101610009C832D833E834F8358878E01075F1F4F26
:10162000CE010196B8010E94390D81E1E82EF12C1E
:10163000EC0EFD1ECE010596B7010E94390D89857D
:10164000823040F08989823028F0C801B7010E94B9
:10165000A20D01C08FEF6896E6E00C944A0EA8E157
:10166000B0E0E5E3FBE00C942E0E69837A838B8374
:101670009C832D833E834F8358878E01075F1F4FC6
:10168000CE010196B8010E94390D81E1E82EF12CBE
:10169000EC0EFD1ECE010596B7010E94390D89851D
:1016A000823040F08989823028F0C801B7010E9459
:1016B000A20D01C081E06896E6E00C944A0EA8E015
:1016C000B0E0E5E6FBE00C942E0E7B018C0183E09C
:1016D0008983D801C7018827B7FD83959927AA2751
:1016E000BB27282F8A83E114F1040105110519F4A1
:1016F00082E0898337C08EE190E09C838B83222334
:1017000089F080E0E81680E0F80680E0080780E8CD
:10171000180769F110950095F094E094E11CF11C14
:10172000011D111DED82FE820F831887C801B701CC
:101730000E94110C9C01215030401216130694F4A3
:10174000022E04C0EE0CFF1C001F111F0A94D2F7DA
:10175000ED82FE820F8318878EE190E0821B930B4F
:101760009C838B83CE0101960E946B0C04C060E0C9
:1017700070E080E09FEC2896E6E00C944A0EACE026
:10178000B0E0E5ECFBE00C94320E69837A838B8346
:101790009C83CE010196BE016B5F7F4F0E94390D85
:1017A0008D81823081F1823070F1843021F48E811C
:1017B000882369F10AC02F81388537FD24C06E81E6
:1017C0002F3131053CF0662311F120E030E040E09C
:1017D00050E821C08EE190E0821B930B29853A8569
:1017E0004B855C8504C056954795379527958A9516
:1017F000D2F7662381F050954095309521953F4F63
:101800004F4F5F4F08C020E030E0A90104C02FEF28
:101810003FEF4FEF5FE7B901CA012C96E2E00C946D
:101820004E0EAF92BF92CF92DF92EF92FF920F9344
:101830001F937B018C0180E0E81680E0F80681E0D0
:10184000080780E0180758F4EFEFEE16F1040105E1
:10185000110509F090F480E090E0DC0117C0F0E0A1
:10186000EF16F0E0FF06F0E00F07F1E01F0750F47D
:1018700080E190E0A0E0B0E009C088E090E0A0E066
:10188000B0E004C088E190E0A0E0B0E020E230E009
:1018900040E050E0281B390B4A0B5B0B57016801F5
:1018A00004C0D694C794B794A7948A95D2F7D6016A
:1018B000C501805F9E4FFC018081281B31094109D1
:1018C0005109C9011F910F91FF90EF90DF90CF90C8
:1018D000BF90AF900895EF92FF920F931F93CF9315
:1018E000DF93FC01248135814681578161818081AC
:1018F000823020F44061EFEFF0E0A3C0843009F4BF
:101900009BC0823009F492C0211531054105510573
:1019100009F48FC00280F381E02D8FEFE238F807E1
:101920000CF05AC0C2E8DFEFCE1BDF0BCA31D10585
:101930006CF579018A010C2E04C016950795F79471
:10194000E7940A94D2F781E090E0A0E0B0E00C2E9A
:1019500004C0880F991FAA1FBB1F0A94D2F70197D2
:10196000A109B10982239323A423B52321E030E008
:1019700040E050E00097A105B10519F420E030E007
:10198000A9012E293F29402B512B03C020E030E034
:10199000A901DA01C9018F779070A070B07080340E
:1019A0009105A105B10539F427FF09C0205C3F4F1F
:1019B0004F4F5F4F04C0215C3F4F4F4F5F4FE1E0FF
:1019C000F0E0203080E0380780E0480780E45807E6
:1019D00028F5E0E0F0E022C0E038F1056CF5E158D0
:1019E000FF4FDA01C9018F779070A070B07080341A
:1019F0009105A105B10539F427FF09C0205C3F4FCF
:101A00004F4F5F4F04C0215C3F4F4F4F5F4F57FF19
:101A100005C05695479537952795319687E0569599
:101A20004795379527958A95D1F70BC0E0E0F0E010
:101A300005C0E0E0F0E005C0EFEFF0E020E030E0CE
:101A4000A9018E2F879588278795942F9F77679573
:101A500066276795E695E22EA92FA82BFE2FF62B79
:101A6000622F732F8A2F9F2FCDB7DEB7E6E00C943D
:101A70004A0EDC01FB012C9111963C9111971296B4
:101A80008C911297482F4F7750E0982F991F9927E4
:101A9000991F13966C911397862F880F892B90E0CE
:101AA000661F6627661F6183009739F5211531058A
:101AB0004105510511F482E029C082E89FEF93832C
:101AC000828367E0220F331F441F551F6A95D1F7A9
:101AD00083E0808309C0220F331F441F551F82817A
:101AE0009381019793838283203080E0380780E0E0
:101AF000480780E4580778F320C08F3F910579F4B8
:101B0000211531054105510519F484E080830895BC
:101B100044FF03C081E0808310C010820EC08F5745
:101B200090409383828383E0808387E0220F331F7A
:101B3000441F551F8A95D1F750642483358346830B
:101B400057830895FC01DB019081923008F449C06D
:101B50008C91823008F445C0943051F46181843016
:101B6000B1F511962C91119730E0261B310941C037
:101B7000843021F0923041F48230B1F111968C9191
:101B800011978823A1F12DC06181823001F1119656
:101B90008C9111976817D9F42281338112968D9117
:101BA0009C9113978217930794F028173907BCF07C
:101BB000248135814681578114968D919D910D9098
:101BC000BC91A02D82179307A407B50718F46623CC
:101BD00041F00DC0281739074A075B0728F4662330
:101BE00031F021E030E005C020E030E002C02FEF0E
:101BF0003FEFC901089597FB092E07260AD077FD0C
:101C000004D00CD006D000201AF4709561957F4F57
:101C10000895F6F7909581959F4F0895AA1BBB1BD9
:101C200051E107C0AA1FBB1FA617B70710F0A61BDC
:101C3000B70B881F991F5A95A9F780959095BC01FD
:101C4000CD0108952F923F924F925F926F927F92B3
:101C50008F929F92AF92BF92CF92DF92EF92FF92BC
:101C60000F931F93CF93DF93CDB7DEB7CA1BDB0B68
:101C70000FB6F894DEBF0FBECDBF09942A8839880D
:101C800048885F846E847D848C849B84AA84B98414
:101C9000C884DF80EE80FD800C811B81AA81B98120
:101CA000CE0FD11D0FB6F894DEBF0FBECDBFED0134
:101CB0000895FC0101900020E9F7809590958E0F22
:081CC0009F1F0895F894FFCF67
:101CC80001006400FFFFFFFF0000000000000000AB
:101CD80000010202030303030404040404040404CB
:101CE800050505050505050505050505050505059C
:101CF800060606060606060606060606060606067C
:101D0800060606060606060606060606060606066B
:101D1800070707070707070707070707070707074B
:101D2800070707070707070707070707070707073B
:101D3800070707070707070707070707070707072B
:101D4800070707070707070707070707070707071B
:101D580008080808080808080808080808080808FB
:101D680008080808080808080808080808080808EB
:101D780008080808080808080808080808080808DB
:101D880008080808080808080808080808080808CB
:101D980008080808080808080808080808080808BB
:101DA80008080808080808080808080808080808AB
:101DB800080808080808080808080808080808089B
:101DC800080808080808080808080808080808088B
:00000001FF
