:020000000A28CC
:1000140020308400831306308001840AFF3E031DD0
:100024000E2800308A0080288316FF30860088015D
:1000340083128701880108008316FF30920083121F
:100044009501970183160711831207309200080067
:100054008316FF30920083129B019D018316871043
:10006400831207309200080026089500270897009D
:10007400080026089B0027089D0008000F30A700F1
:10008400A6010A128A1136208312031308100800ED
:100094000F30A7002808A6000A128A1136208312FE
:1000A4000313081008000F30A7002809A6000A123D
:1000B4008A11362083120313081408000F30A70096
:1000C400A6010A128A113B20831203138810080028
:1000D4000F30A7002808A6000A128A113B208312B9
:1000E4000313881008000F30A7002809A6000A127D
:1000F4008A113B208312031388140800831203130C
:100104000A128A1116200A128A111E200A128A1152
:100114002A20A030A2005030A300AF30A0005030FD
:10012400A1000A128A11A7282908753A031D9C28E0
:100134002A08303A0319A728AA0A0319A90A290880
:100144002A040A128A11031D962824082504031977
:10015400BB282408073A031DB1282508D03A031DFB
:10016400B828A401A5012308A100BB28A50A0319E6
:10017400A40A861BCE28061BCE28861ACE28200861
:10018400A8000A128A114A202008A8000A128A111B
:100194006A200A128A11A728861BDF28061BDF287B
:1001A400861EDF280A128A1140202108A8000A129C
:1001B4008A116A200A128A11A728861FF028061BB2
:1001C400F028861AF0282108A8000A128A114A2069
:1001D4000A128A1160200A128A11A728861F03298D
:1001E400061B0329861E03292008A8000A128A1167
:1001F4004A202008A8000A128A116A200A128A11C9
:10020400A728861B1229061F1229861A12290A12E8
:100214008A1140200A128A1160200A128A11A72822
:10022400861F2D29061F2D29861E2D292008A8008A
:100234000A128A1155202008A8000A128A11752072
:10024400A9010130AA002208A100A50A0319A40AE1
:100254000A128A119E28861B4029061F4029861EE1
:1002640040292108A8000A128A1155202008A80054
:100274000A128A116A200A128A11A7282008A800E3
:100284000A128A114A202108A8000A128A1175202C
:060294000A128A11A728DE
:00000001FF
