:0A0000000A28FF348F34BF346F3438
:1000140029308400831302308001840AFF3E031DCB
:100024000E28253084008313031383120130FD004E
:100034000030FE000430FF002B208000FD0A03196D
:10004400FE0A840A0A128A11FF0B1E2800308A0055
:100054009B28031383127E088A007D08820083167E
:10006400FF30860088018312870188010800831607
:10007400FF309200831295019701831607118312B2
:100084000730920008008316FF30920083129B0110
:100094009D01831687108312073092000800200800
:1000A400950021089700080020089B0021089D0066
:1000B40008000F30A100A0010A128A1151208312F6
:1000C4000313081008000F30A1002208A0000A1230
:1000D4008A11512083120313081008000F30A10065
:1000E4002209A0000A128A11512083120313081452
:1000F40008000F30A100A0010A128A1156208312B1
:100104000313881008000F30A1002208A0000A126F
:100114008A11562083120313881008000F30A1009F
:100124002209A0000A128A1156208312031388148C
:100134000800831203130A128A1131200A128A1149
:1001440039200A128A114520FF30A5002808A6008C
:100154000A128A11861CC4285F30A8009F30A700A9
:10016400C4282308753A031DB9282408303A031912
:10017400C428A40A0319A30A230824040A128A110E
:10018400031DB32829082A040319D8282908073A83
:10019400031DCE282A08D03A031DD528A901AA0197
:1001A4002808A600D828AA0A0319A90A861BEB283E
:1001B400061BEB28861AEB282508A2000A128A11CE
:1001C40065202508A2000A128A1185200A128A11C4
:1001D400C428861BFC28061BFC28861EFC280A1241
:1001E4008A115B202608A2000A128A1185200A12AD
:1001F4008A11C428861F0D29061B0D29861A0D296C
:100204002608A2000A128A1165200A128A117B208C
:100214000A128A11C428861F2029061B2029861E3B
:1002240020292508A2000A128A1165202508A200A7
:100234000A128A1185200A128A11C428861B2F29C2
:10024400061F2F29861A2F290A128A115B200A12E7
:100254008A117B200A128A11C428861F4A29061F84
:100264004A29861E4A292508A2000A128A117020EA
:100274002508A2000A128A119020A3010130A400CB
:100284002708A600AA0A0319A90A0A128A11BB2878
:10029400861B5D29061F5D29861E5D292608A2008E
:1002A4000A128A1170202508A2000A128A118520D8
:1002B4000A128A11C4282508A2000A128A1165208C
:1002C4002608A2000A128A1190200A128A11C42850
:00000001FF
