:100000000C9434000C9451000C9451000C94510049
:100010000C9451000C9451000C9451000C9451001C
:100020000C9451000C9451000C9451000C9451000C
:100030000C9451000C9451000C943B050C9451000D
:100040000C9451000C9451000C945E060C945100D9
:100050000C9403060C9451000C9451000C94510024
:100060000C9451000C94510011241FBECFEFD8E026
:10007000DEBFCDBF11E0A0E0B1E0E0E2F1E202C0FE
:1000800005900D92AE32B107D9F716E0AEE2B1E0BD
:1000900001C01D92AA30B107E1F70E940E010C9435
:1000A0008E100C940000DF93CF9300D0CDB7DEB755
:1000B0009A83898380E091E00E947F06FBCFDF93E3
:1000C000CF9300D0CDB7DEB79A83898384E091E0E7
:1000D0000E947F06FBCF0F931F93DF93CF93CDB783
:1000E000DEB760970FB6F894DEBF0FBECDBF988B1A
:1000F0008F8788E091E00E947F0680E090E4ACE981
:10010000B5E489839A83AB83BC8369817A818B81CF
:100110009C8120E030E04AE755E40E94DE08DC01E3
:10012000CB018D839E83AF83B88711E06D817E8183
:100130008F81988520E030E040E85FE30E94380A34
:1001400088230CF010E0112329F081E090E09A87D9
:10015000898746C011E06D817E818F81988520E07E
:100160003FEF4FE757E40E94D80918160CF010E053
:10017000112361F169817A818B819C8120E030E0DB
:1001800040E251E40E94DE08DC01CB01BC01CD015C
:100190000E940A07DC01CB019A87898712C080E997
:1001A00091E09C878B878B859C858C01C80101978A
:1001B000F1F78C011C870B8789859A8501979A87AF
:1001C000898789859A85009751F793CF6D817E81C4
:1001D0008F8198850E940A07DC01CB019A87898765
:1001E00089859A859E878D878D859E858C01C8011E
:1001F0000197F1F78C011E870D877BCFDF93CF939B
:10020000CDB7DEB784E290E0FC01808184E290E02B
:100210002FEFFC012083CF91DF910895DF93CF93DF
:10022000CDB7DEB70E94CB0578940E9440058CE0E4
:1002300091E00E947F060E94FE0083E590E061E06D
:1002400070E040E050E00E945A058FE590E061E0E8
:1002500070E040E050E00E945A058BE690E061E0DB
:1002600070E040E050E00E945A050E94B00580E036
:1002700090E0CF91DF910895DF93CF93CDB7DEB7B4
:10028000F894CF91DF910895DF93CF93CDB7DEB788
:100290007894CF91DF910895DF93CF9300D000D071
:1002A000CDB7DEB79C838B838CE690E00E94A80CD0
:1002B0009A83898389819A81FC01118210828981C4
:1002C0009A812B813C81FC013383228389819A812D
:1002D00088599F4FFC011182108289819A81865929
:1002E0009F4FFC01118210820F900F900F900F9082
:1002F000CF91DF910895DF93CF9300D0CDB7DEB7D4
:100300009A838983F89489819A81FC018081918103
:10031000009711F0789443C089819A81FC01828111
:1003200093811816190674F189819A81FC018281E2
:100330009381909581959F4F8333910510F0789428
:100340002EC08091150190911601FFEF8F3F9F07FE
:1003500011F4789424C040911501509116012BE0BE
:1003600031E0429FC001439F900D529F900D112498
:10037000865B9E4F22E030E0FC01318320830E94A7
:100380004B040DC089819A81FC01828193819C017B
:100390002150304089819A81FC01338322830F9060
:1003A0000F90CF91DF910895DF93CF9300D000D0CD
:1003B000CDB7DEB79C838B838B819C81FC018081D0
:1003C0009181009709F05CC08B819C81FC01828146
:1003D000938199230CF046C08B819C8104969C01EB
:1003E0008B819C8188599F4FFC0180819181820F74
:1003F000931FFC01808191819A8389838B819C81E9
:1004000088599F4FFC018081918102969C018B81CC
:100410009C8188599F4FFC01318320838B819C8173
:1004200088599F4FFC01808191818436910539F470
:100430008B819C8188599F4FFC01118210824981D8
:100440005A812BE031E0429FC001439F900D529FA3
:10045000900D1124865B9E4F21E030E0FC0131833A
:1004600020830FC08B819C81FC01828193819C0140
:100470002F5F3F4F8B819C81FC013383228301C01E
:1004800000000F900F900F900F90CF91DF91089583
:10049000DF93CF9300D000D000D0CDB7DEB79C83E0
:1004A0008B837E836D838B819C81853691051CF0C7
:1004B00080E090E022C08CE690E00E94A80C9A8335
:1004C000898389819A8121E030E0FC013183208396
:1004D00089819A812D813E81FC0133832283898128
:1004E0009A8188599F4FFC011182108289819A81DB
:1004F00086599F4FFC011182108226960FB6F89400
:10050000DEBF0FBECDBFCF91DF910895DF93CF93B4
:1005100000D000D000D0CDB7DEB79C838B837E8324
:100520006D831A8219824EC08B819C8186599F4FA0
:10053000FC01808191814D815E8129813A81240F66
:10054000351FF90140812B813C81820F931F049656
:10055000FC0140838B819C8186599F4FFC018081E7
:10056000918101969C018B819C8186599F4FFC0152
:10057000318320838B819C8186599F4FFC01808130
:1005800091818436910541F48B819C8186599F4FDE
:10059000FC011182108211C08B819C8186599F4F72
:1005A000FC01208131818B819C8188599F4FFC0106
:1005B000808191812817390789F089819A81019674
:1005C0009A8389838B819C81FC012281338189817B
:1005D0009A81821793070CF4A7CF01C000002696DA
:1005E0000FB6F894DEBF0FBECDBFCF91DF91089557
:1005F000DF93CF9300D000D0CDB7DEB79C838B8341
:100600008B819C8188599F4FFC01808191819A83C5
:1006100089838B819C8188599F4FFC0180819181C6
:100620009C018B819C81FC0182819381820F931FAD
:100630009C018B819C8188599F4FFC0131832083D1
:100640008B819C8186599F4FFC01808191812981FA
:100650003A81A901481B590B8B819C8188599F4F76
:10066000FC01208131818B819C8186599F4FFC0147
:1006700080819181281B390B429FC001439F900DBF
:10068000529F900D1124181619061CF080E090E07E
:1006900009C08B819C819C012C5F3F4F89819A818D
:1006A000820F931F0F900F900F900F90CF91DF91BB
:1006B0000895DF93CF9300D0CDB7DEB79A838983B7
:1006C00089819A810E94420D0F900F90CF91DF9106
:1006D0000895DF93CF9300D0CDB7DEB79A83898397
:1006E000F89489819A819093160180931501409125
:1006F0001501509116012BE031E0429FC001439F4C
:10070000900D529F900D1124865B9E4F21E030E0AA
:10071000FC013183208340911501509116012BE09B
:1007200031E0429FC001439F900D529F900D1124D4
:10073000865F9E4F865B9E4FAA2797FDA095BA2F96
:100740008093460190934701A0934801B0934901DB
:10075000A0914601B0914701ADBFBEBF78944091D2
:100760001501509116012BE031E0429FC001439FDB
:10077000900D529F900D1124825B9E4FFC012081B1
:10078000318160911501709116014BE051E0649F39
:10079000C001659F900D749F900D1124805B9E4F4A
:1007A000FC0180819181F90109950F900F90CF9103
:1007B000DF910895DF93CF93CDB7DEB7F894CF9153
:1007C000DF910895DF93CF93CDB7DEB77894CF91C3
:1007D000DF910895DF93CF9300D0CDB7DEB780913E
:1007E00015019091160101969A8389831CC0498155
:1007F0005A812BE031E0429FC001439F900D529FF0
:10080000900D1124865B9E4FFC0180819181823086
:10081000910531F489819A8101969A83898303C075
:1008200089819A8133C080912E0190912F01298175
:100830003A8128173907DCF21A8219821CC04981D3
:100840005A812BE031E0429FC001439F900D529F9F
:10085000900D1124865B9E4FFC0180819181823036
:10086000910531F489819A8101969A83898303C025
:1008700089819A810BC0809115019091160129817F
:100880003A8128173907DCF28FEF9FEF0F900F9016
:10089000CF91DF91089580911501909116019923D0
:1008A0000CF4E6C00E94EA039A83898300D000D04A
:1008B00000D08DB79EB7019622E331E0FC01318371
:1008C000208327E131E0FC013383228329813A81AF
:1008D000FC01358324830E94E40D8DB79EB70696F4
:1008E0000FB6F8949EBF0FBE8DBF82E391E00E94C9
:1008F0007F0689819A8199230CF4BCC0F8940F92E9
:100900000FB60F921F9211242F923F924F925F9237
:100910006F927F928F929F92AF92BF92CF92DF920F
:10092000EF92FF920F931F932F933F934F935F93F9
:100930006F937F938F939F93AF93BF93CF93DF93E7
:10094000EF93FF93ADB7BEB7B0934701A0934601B5
:1009500060911501709116018091460190914701B7
:10096000A0914801B09149014BE051E0649F900192
:10097000659F300D749F300D11242E5A3E4FF901A2
:1009800080839183A283B38389819A819093160196
:10099000809315018091150190911601AC012BE017
:1009A00031E0429FC001439F900D529F900D112452
:1009B000865B9E4F9C838B8378948B819C81FC010A
:1009C00080819181009709F44BC0F8944091150102
:1009D000509116012BE031E0429FC001439F900DE2
:1009E000529F900D11248E5A9E4FFC01808191815F
:1009F000A281B3818093460190934701A09348015F
:100A0000B09349018091460190914701A09148011E
:100A1000B09149018DBF9EBFFF91EF91DF91CF91C2
:100A2000BF91AF919F918F917F916F915F914F9106
:100A30003F912F911F910F91FF90EF90DF90CF90FA
:100A4000BF90AF909F908F907F906F905F904F90EE
:100A50003F902F901F900F900FBE0F90789406C07C
:100A600080911501909116010E946903089503C0B9
:100A7000000001C00000F8940E944B04189578947F
:100A8000DF93CF93CDB7DEB786E490E0FC01108210
:100A900087E490E024E6FC01208384E490E022E0F7
:100AA000FC01208385E490E025E0FC012083CF91C8
:100AB000DF910895DF93CF93CDB7DEB728970FB6B8
:100AC000F894DEBF0FBECDBF9C838B837E836D8386
:100AD00058874F8380912E0190912F01843091058A
:100AE0001CF08FEF9FEF33C080912E0190912F016A
:100AF000BC014BE051E0649F9001659F300D749FF5
:100B0000300D1124265B3E4F3A8329830196909342
:100B10002F0180932E0189819A812B813C81FC01D8
:100B20003583248389819A812D813E81FC01338321
:100B3000228389819A812F813885FC01378326831E
:100B400089819A81FC011182108280E090E02896D0
:100B50000FB6F894DEBF0FBECDBFCF91DF910895E1
:100B6000DF93CF93CDB7DEB78EE690E02EE630E090
:100B7000F90120812260FC012083789410921601F3
:100B80001092150180911501909116010E94690340
:100B9000CF91DF910895DF93CF93CDB7DEB7F8946F
:100BA0001092C1051092C00510920506109204061D
:100BB0001092C3051092C2051092BD051092BC059B
:100BC0001092BF051092BE051092BB051092BA0597
:100BD00084EC90E027E6FC01208385EC90E0FC01AA
:100BE000108282EC90E026E0FC01208381EC90E012
:100BF00028E9FC01208380EC90E0FC0110827894CD
:100C0000CF91DF9108951F920F920FB60F9211248A
:100C10002F933F935F936F937F938F939F93AF93A4
:100C2000BF93EF93FF93DF93CF93CDB7DEB7F894E5
:100C30008091C0059091C105009751F481EC90E03E
:100C400021EC30E0F90120812F7BFC01208323C0BF
:100C500086EC90E02091C2053091C3052C533A4FA9
:100C6000F9012081FC0120838091C2059091C30588
:100C7000019620E430E0B9010E944A0C9093C3052C
:100C80008093C2058091C0059091C1050197909312
:100C9000C1058093C0057894CF91DF91FF91EF91CA
:100CA000BF91AF919F918F917F916F915F913F9194
:100CB0002F910F900FBE0F901F9018951F920F92BB
:100CC0000FB60F9211248F939F93EF93FF93DF93AF
:100CD000CF930F92CDB7DEB7F89486EC90E0FC018D
:100CE0008081898378940F90CF91DF91FF91EF916C
:100CF0009F918F910F900FBE0F901F9018950F939B
:100D00001F93DF93CF9300D000D0CDB7DEB79C8385
:100D10008B83F8941A82198262C0809104069091A4
:100D2000050629813A814B815C81240F351FF90129
:100D300020818C539A4FFC0120838091040690916E
:100D40000506019620E430E0B9010E944A0C909318
:100D50000506809304068091C0059091C105019617
:100D60009093C1058093C00581EC90E0FC018081E7
:100D7000882F90E080749070009761F586EC90E089
:100D80002091C2053091C3052C533A4FF9012081BF
:100D9000FC0120838091C2059091C305019620E457
:100DA00030E0B9010E944A0C9093C3058093C205BC
:100DB0008091C0059091C10501979093C1058093E2
:100DC000C00581EC90E021EC30E0F9012081206445
:100DD000FC01208389819A8101969A838983098104
:100DE0001A818B819C810E94DB0D0817190740F442
:100DF0008091C0059091C105803491050CF48DCF90
:100E000078940F900F900F900F90CF91DF911F91DA
:100E10000F910895EF92FF920F931F937B018C0126
:100E200020E030E040E05FE40E94080A87FD11C046
:100E3000C801B70120E030E040E05FE40E94AD0867
:100E40000E94680A9B01AC0120503040404050484D
:100E500006C0C801B7010E94680A9B01AC01B90134
:100E6000CA011F910F91FF90EF900895A0E0B0E0AC
:100E7000ECE3F7E00C94750CFC01EA018081823010
:100E800008F438C1DB019C91923008F430C1843001
:100E900059F4943009F02EC1918111968C911197DB
:100EA000981709F021C126C1943009F420C192306D
:100EB000B1F4823009F01EC1CA01AF0128E0DA01A5
:100EC0000D90AD01DC010D92CD012150C1F7DB0188
:100ED00011968C9111979181892389830AC182305F
:100EE00009F405C1C280D380DB0112966D907C901D
:100EF000139724813581468157811496ED90FD909A
:100F00000D911C911797C601861997095C0197FFEF
:100F100004C0AA24BB24A81AB90AB0E2AB16B104D3
:100F20000CF061C0181619066CF5370148010A2C3F
:100F300004C096948794779467940A94D2F781E0DA
:100F400090E0A0E0B0E00A2C04C0880F991FAA1F0F
:100F5000BB1F0A94D2F70197A109B1098E219F21E5
:100F6000A023B123EE24FF248701E3940097A10579
:100F7000B10519F4EE24FF248701E628F728082993
:100F800019293CC00097D1F1CA0CDB1C39014A0178
:100F90000A2C04C096948794779467940A94D2F7A5
:100FA00081E090E0A0E0B0E00A2C04C0880F991F17
:100FB000AA1FBB1F0A94D2F70197A109B109822386
:100FC0009323A423B52321E030E040E050E00097D4
:100FD000A105B10519F420E030E0A901262937293F
:100FE000482959290BC06C147D0424F4EE24FF24F5
:100FF000870104C0630120E030E0A9018181FB0189
:101000009181891709F445C0882349F0D801C701A7
:10101000821B930BA40BB50B9C01AD0104C02E19D0
:101020003F09400B510B57FD04C01982DB82CA8275
:101030000BC081E08983DB82CA8250954095309550
:1010400021953F4F4F4F5F4F2C833D834E835F83EE
:101050000DC0880F991FAA1FBB1F8C839D83AE8371
:10106000BF838A819B8101979B838A838C819D8129
:10107000AE81BF819C01AD012150304040405040C5
:101080002F3FEFEF3E07EFEF4E07EFE35E0708F36A
:101090000BC08983DB82CA822E0D3F1D401F511F6A
:1010A0002C833D834E835F8383E088832C813D8145
:1010B0004E815F8157FF1DC0DA01C90181709070B8
:1010C000A070B0705695479537952795822B932B36
:1010D000A42BB52B8C839D83AE83BF838A819B8198
:1010E00001969B838A8305C0E0E2F1E003C0FB0127
:1010F00001C0FE01CF01CDB7DEB7EEE00C94910C3C
:10110000A0E2B0E0E6E8F8E00C947D0C69837A8315
:101110008B839C832D833E834F83588789E0E82E01
:10112000F12CEC0EFD1ECE010196B7010E94880B3A
:101130008E010F5E1F4FCE010596B8010E94880BED
:10114000C701B801AE01475E5F4F0E9436070E949B
:10115000BA0AA096E6E00C94990CA0E2B0E0E3EBAA
:10116000F8E00C947D0C69837A838B839C832D83B8
:101170003E834F8358878E01075F1F4FCE01019634
:10118000B8010E94880B91E1E92EF12CEC0EFD1EB6
:10119000CE010596B7010E94880B8A8991E08927C4
:1011A0008A8BC801B701AE01475E5F4F0E943607C8
:1011B0000E94BA0AA096E6E00C94990CA0E2B0E076
:1011C000E4EEF8E00C94710C69837A838B839C8342
:1011D0002D833E834F835887CE010196BE01675F02
:1011E0007F4F0E94880BCE010596BE016F5E7F4F38
:1011F0000E94880B9985923078F089898230C0F0FE
:10120000943019F4823041F4CBC0843019F4923018
:1012100079F4C6C0923051F481E02A859A89291761
:1012200009F480E08A87CE010996BCC0823051F46F
:1012300081E02A859A89291709F480E08A8BCE01FA
:101240004196B0C06D847E848F849888ED88FE8836
:101250000F89188DE0E2F0E080E090E0DC01AA2444
:10126000BB24650120E030E0A901B301617070701A
:1012700061157105D1F02E0D3F1D401F511F150145
:101280002601280E391E4A1E5B1E81E090E0A0E078
:10129000B0E02E153F054007510718F080E090E0C0
:1012A000DC01820D931DA41DB51DAA0CBB1CCC1C1A
:1012B000DD1C17FF09C061E0262E312C412C512C7A
:1012C000A228B328C428D528319749F0EE0CFF1C7A
:1012D000001F111F9694879477946794C6CF6B89EB
:1012E0007C89EB85FC856E0F7F1F6E5F7F4F7C8F47
:1012F0006B8F61E0EA857A89E71709F460E06A8F0D
:101300006B8D7C8D10C0FC01E170F070309729F07E
:1013100056954795379527955068B695A795979513
:1013200087956F5F7F4FB7FDEECF0CC0880F991F79
:10133000AA1FBB1F57FD8160220F331F441F551F7B
:10134000615070408030E0E09E07E0E0AE07E0E4EE
:10135000BE0760F36B8F7C8F6FE7E62EF12C012DBB
:10136000112DE822F9220A231B2360E4E616F1047A
:101370000105110561F487FD0AC0211531054105FC
:10138000510529F0805C9F4FAF4FBF4F80788D8F04
:101390009E8FAF8FB8A383E0898FCE01499602C09C
:1013A00080E291E00E94BA0AA096E2E10C948D0CD2
:1013B000A8E1B0E0EEEDF9E00C947D0C69837A834E
:1013C0008B839C832D833E834F8358878E01075FD9
:1013D0001F4FCE010196B8010E94880B81E1E82ED3
:1013E000F12CEC0EFD1ECE010596B7010E94880B74
:1013F0008985823040F08989823028F0C801B701A0
:101400000E94F10B01C08FEF6896E6E00C94990CF6
:10141000A8E1B0E0EEE0FAE00C947D0C69837A83F9
:101420008B839C832D833E834F8358878E01075F78
:101430001F4FCE010196B8010E94880B81E1E82E72
:10144000F12CEC0EFD1ECE010596B7010E94880B13
:101450008985823040F08989823028F0C801B7013F
:101460000E94F10B01C08FEF6896E6E00C94990C96
:10147000A8E1B0E0EEE3FAE00C947D0C69837A8396
:101480008B839C832D833E834F8358878E01075F18
:101490001F4FCE010196B8010E94880B81E1E82E12
:1014A000F12CEC0EFD1ECE010596B7010E94880BB3
:1014B0008985823040F08989823028F0C801B701DF
:1014C0000E94F10B01C081E06896E6E00C94990C53
:1014D000ACE0B0E0EEE6FAE00C94810C69837A832C
:1014E0008B839C83CE010196BE016B5F7F4F0E9470
:1014F000880B8D81823081F1823070F1843021F44B
:101500008E81882369F10AC02F81388537FD24C078
:101510006E812F3131053CF0662311F120E030E07F
:1015200040E050E821C08EE190E0821B930B2985BA
:101530003A854B855C8504C0569547953795279528
:101540008A95D2F7662381F0509540953095219584
:101550003F4F4F4F5F4F08C020E030E0A90104C06B
:101560002FEF3FEF4FEF5FE7B901CA012C96E2E0A2
:101570000C949D0CEF92FF920F931F93CF93DF93E8
:10158000FC012481358146815781618180818230CF
:1015900020F44061EFEFF0E0A3C0843009F49BC079
:1015A000823009F492C0211531054105510509F435
:1015B0008FC00280F381E02D8FEFE238F8070CF046
:1015C0005AC0C2E8DFEFCE1BDF0BCA31D1056CF584
:1015D00079018A010C2E04C016950795F794E794BB
:1015E0000A94D2F781E090E0A0E0B0E00C2E04C0B5
:1015F000880F991FAA1FBB1F0A94D2F70197A10950
:10160000B10982239323A423B52321E030E040E0F5
:1016100050E00097A105B10519F420E030E0A901E0
:101620002E293F29402B512B03C020E030E0A90197
:10163000DA01C9018F779070A070B0708034910585
:10164000A105B10539F427FF09C0205C3F4F4F4F7A
:101650005F4F04C0215C3F4F4F4F5F4FE1E0F0E030
:10166000203080E0380780E0480780E4580728F5FC
:10167000E0E0F0E022C0E038F1056CF5E158FF4F02
:10168000DA01C9018F779070A070B0708034910535
:10169000A105B10539F427FF09C0205C3F4F4F4F2A
:1016A0005F4F04C0215C3F4F4F4F5F4F57FF05C056
:1016B0005695479537952795319687E056954795E6
:1016C000379527958A95D1F70BC0E0E0F0E005C08B
:1016D000E0E0F0E005C0EFEFF0E020E030E0A9014D
:1016E0008E2F879588278795942F9F7767956627F4
:1016F0006795E695E22EA92FA82BFE2FF62B622FD9
:10170000732F8A2F9F2FCDB7DEB7E6E00C94990C8C
:10171000DC01FB012C9111963C91119712968C9152
:101720001297482F4F7750E0982F991F9927991FAC
:1017300013966C911397862F880F892B90E0661F64
:101740006627661F6183009739F52115310541052C
:10175000510511F482E029C082E89FEF93838283D0
:1017600067E0220F331F441F551F6A95D1F783E0AE
:10177000808309C0220F331F441F551F828193812C
:10178000019793838283203080E0380780E0480708
:1017900080E4580778F320C08F3F910579F4211534
:1017A00031054105510519F484E08083089544FF13
:1017B00003C081E0808310C010820EC08F5790401C
:1017C0009383828383E0808387E0220F331F441F4B
:1017D000551F8A95D1F750642483358346835783F8
:1017E0000895FC01DB019081923008F449C08C918E
:1017F000823008F445C0943051F461818430B1F5F1
:1018000011962C91119730E0261B310941C084308C
:1018100021F0923041F48230B1F111968C91119700
:101820008823A1F12DC06181823001F111968C9144
:1018300011976817D9F42281338112968D919C916A
:1018400013978217930794F028173907BCF0248167
:1018500035814681578114968D919D910D90BC9153
:10186000A02D82179307A407B50718F4662341F04B
:101870000DC0281739074A075B0728F4662331F0A3
:1018800021E030E005C020E030E002C02FEF3FEF64
:10189000C901089597FB092E07260AD077FD04D0C9
:1018A0000CD006D000201AF4709561957F4F0895F2
:1018B000F6F7909581959F4F0895AA1BBB1B51E1A8
:1018C00007C0AA1FBB1FA617B70710F0A61BB70BB0
:1018D000881F991F5A95A9F780959095BC01CD0155
:1018E00008952F923F924F925F926F927F928F92C4
:1018F0009F92AF92BF92CF92DF92EF92FF920F939F
:101900001F93CF93DF93CDB7DEB7CA1BDB0B0FB6A8
:10191000F894DEBF0FBECDBF09942A883988488865
:101920005F846E847D848C849B84AA84B984C884FB
:10193000DF80EE80FD800C811B81AA81B981CE0FF2
:10194000D11D0FB6F894DEBF0FBECDBFED010895D7
:10195000CF93DF938230910510F482E090E0E09124
:101960000806F091090640E050E020E030E026C093
:101970006081718168177907E0F06817790781F451
:10198000828193812115310531F0D90113969C9301
:101990008E9312972BC0909309068093080626C059
:1019A0004115510519F06417750718F4AB01E901E9
:1019B000DF019F0172816381E72FF62F3097C1F617
:1019C0004115510501F1481B590B4430510580F474
:1019D00012968D919C911397209719F09B838A837F
:1019E00004C09093090680930806FD01329646C014
:1019F000FD01E40FF51F81939193425050401196E1
:101A00005C934E933BC0209106063091070621154A
:101A1000310541F420912A0130912B0130930706C2
:101A20002093060620912C0130912D0121153105BE
:101A300041F42DB73EB74091280150912901241B54
:101A4000350BE0910606F0910706E217F307A0F4C4
:101A50002E1B3F0B2817390778F0AC014E5F5F4F04
:101A60002417350748F04E0F5F1F50930706409329
:101A700006068193919302C0E0E0F0E0CF01DF9190
:101A8000CF910895CF93DF93009709F491C0FC01A3
:101A900032971382128260910806709109066115CF
:101AA000710581F420813181280F391F809106064C
:101AB000909107068217930799F5F0930706E09334
:101AC000060676C0DB0180E090E002C0CD01D901BE
:101AD000AE17BF0748F412962D913C91139721152C
:101AE0003105A1F7CD0121C0B383A283EF01499154
:101AF00059919E01240F351FA217B30779F42D9138
:101B00003C911197240F351F2E5F3F4F3183208367
:101B100012962D913C91139733832283009729F4D9
:101B2000F0930906E093080643C0DC011396FC938A
:101B3000EE9312974D915D91A40FB51FEA17FB0725
:101B400069F420813181240F351F2E5F3F4FEC0156
:101B500039832883228133813B832A83E0E0F0E0CC
:101B600002C0FB01BC01DB0112968D919C91139781
:101B70000097B9F79B012E5F3F4F8D919C91119774
:101B8000820F931F40910606509107064817590788
:101B900079F4309729F4109209061092080602C0D1
:101BA000138212822250304030930706209306069B
:101BB000DF91CF910895FC0101900020E9F7809515
:101BC00090958E0F9F1F0895AEE0B0E0EAEEFDE025
:101BD0000C947F0C0D891E8986E08C831A830983FF
:101BE0008FEF9FE79E838D839E01275E3F4FCE013F
:101BF00001966F89788DA9010E94070EEF81F88503
:101C0000E00FF11F10822E96E4E00C949B0CACE0E8
:101C1000B0E0EDE0FEE00C94710C6C011B018A0158
:101C2000FC0117821682838181FFD1C12E010894A5
:101C3000411C511CF6019381F10193FD859193FFA5
:101C400081911F01882309F4BEC1853239F493FDC7
:101C5000859193FF81911F01853229F490E0B601AF
:101C60000E940410E7CFEE24FF2420E02032B0F4DD
:101C70008B3269F08C3228F4803251F0833271F467
:101C80000BC08D3239F0803349F421602CC02260C2
:101C9000246029C0286027C0206125C027FD2CC0F2
:101CA000382F30533A3098F426FF08C08E2D880F15
:101CB000E82EEE0CEE0CE80EE30E15C08F2D880F0B
:101CC000F82EFF0CFF0CF80EF30E20620CC08E32C3
:101CD00021F426FD78C1206406C08C3611F42068FA
:101CE00002C0883649F4F10193FD859193FF8191FB
:101CF0001F01882309F0BACF982F9554933018F01C
:101D00009052933028F40C5F1F4FFFE3F9830DC00E
:101D1000833631F0833771F0833509F060C022C01B
:101D2000F801808189830E5F1F4F420171E0A72E69
:101D3000B12C16C062E0662E712C600E711EF80187
:101D40008080918026FF03C06E2D70E002C06FEF8F
:101D50007FEFC4012C870E94F90F5C0183012C8561
:101D60002F7717C052E0652E712C600E711EF8019E
:101D70008080918026FF03C06E2D70E002C06FEF5F
:101D80007FEFC4012C870E94EE0F5C012C85206838
:101D9000830123FD20C008C080E290E0B6012C87BB
:101DA0000E940410FA942C858F2D90E0A816B90695
:101DB00098F311C0F40127FD859127FF81914F0110
:101DC00090E0B6012C870E9404102C85F110FA9443
:101DD0000894A108B108A114B10461F7F1C08436D8
:101DE00011F0893649F527FF08C0F801608171813B
:101DF000828193810C5F1F4F09C0F801608171815E
:101E0000882777FD8095982F0E5F1F4F4FE6B42EE1
:101E1000B22297FF09C090958095709561957F4F8C
:101E20008F4F9F4FF0E8BF2AA2012AE030E00E94C6
:101E30003010782E741845C0853731F43FEEB32E3C
:101E4000B2222AE030E025C099EFB92EB2228F36B7
:101E5000C1F0803720F4883509F0B5C00DC0803757
:101E600021F0883709F0AFC002C020E1B22AB4FEE9
:101E70000BC084E0B82A08C0B4FE09C0E6E0BE2A60
:101E800006C028E030E005C020E130E002C020E1DB
:101E900032E0B7FE08C0F8016081718182819381D0
:101EA0000C5F1F4F07C0F8016081718180E090E0F6
:101EB0000E5F1F4FA2010E943010782E7418FFE7AA
:101EC000BF22B6FE0BC02EEFB2227E1438F4B4FE51
:101ED00007C0B2FC05C08FEEB82202C0A72C01C01B
:101EE000AE2C8B2D90E0B4FE0DC0FE01E70DF11D70
:101EF0002081203319F4E9EEBE2209C0A394B2FE7A
:101F000006C004C086789070009709F0A3948B2CCB
:101F10009924B3FC14C0B0FE0FC0AF1428F4E72C12
:101F2000EF0CEA18AF2C08C0E72C06C080E290E066
:101F3000B6010E940410A394AF14C0F304C0AF1400
:101F400010F4FA1801C0FF2484FE0FC080E390E073
:101F5000B6010E94041082FE1FC081FE03C088E506
:101F600090E010C088E790E00DC0C40186789070C2
:101F7000009791F081FC02C080E201C08BE2B7FCC7
:101F80008DE290E0B6010E94041006C080E390E06C
:101F9000B6010E940410EA947E14C0F37A94F20110
:101FA000E70DF11D808190E0B6010E9404107720BA
:101FB000A9F706C080E290E0B6010E940410FA94EE
:101FC000FF20C1F737CEF6012681378102C02FEFFF
:101FD0003FEFC9012C96E2E10C948D0CFC010590B9
:101FE000615070400110D8F7809590958E0F9F1F1B
:101FF0000895FC016150704001900110D8F7809560
:1020000090958E0F9F1F08950F931F93CF93DF938B
:102010008C01EB018B8181FF1BC082FF0DC02E81E3
:102020003F818C819D812817390764F4E881F9810B
:102030000193F983E88306C0E885F985802F099527
:10204000009731F48E819F8101969F838E8302C019
:102050000FEF1FEFC801DF91CF911F910F910895EE
:10206000FA01AA27283051F1203181F1E8946F93C9
:102070006E7F6E5F7F4F8F4F9F4FAF4FB1E03ED06F
:10208000B4E03CD0670F781F891F9A1FA11D680F0D
:10209000791F8A1F911DA11D6A0F711D811D911D40
:1020A000A11D20D009F468943F912AE0269F1124B5
:1020B0003019305D3193DEF6CF010895462F477019
:1020C000405D4193B3E00FD0C9F7F6CF462F4F7074
:1020D000405D4A3318F0495D31FD4052419302D0D2
:1020E000A9F7EACFB4E0A695979587957795679578
:1020F000BA95C9F700976105710508959B01AC0178
:102100000A2E06945795479537952795BA95C9F79E
:10211000620F731F841F951FA01D0895F894FFCFB1
:10212000310A0D00320A0D00330A0D0042216567A5
:10213000696E0D0A00FFFF6E233A2564200A0D0028
:0E214000000000000000000020000A06000061
:00000001FF
