:100000000C9434000C9451000C9451000C94510049
:100010000C9451000C9451000C9451000C9451001C
:100020000C9451000C9451000C9451000C9451000C
:100030000C9451000C9451000C94B0080C94510095
:100040000C9451000C9451000C94D9090C9451005B
:100050000C947E090C9451000C9451000C945100A6
:100060000C9451000C94510011241FBECFEFD8E026
:10007000DEBFCDBF11E0A0E0B1E0EEE8F9E202C0E2
:1000800005900D92AA31B107D9F716E0AAE1B1E0C7
:1000900001C01D92AC33B107E1F70E94BB010C9483
:1000A000C5140C940000DF93CF9300D0CDB7DEB71A
:1000B0009A8389830E94E10180911A0190911B012A
:1000C000019690931B0180931A0180911A019091DF
:1000D0001B012AE030E0B9010E946A10009799F4F0
:1000E0008BE290E02BE230E0F901308120E8232719
:1000F000FC01208380916001909161012AE131E04F
:10010000B9010E94D7040E94E901D4CFDF93CF93B5
:1001100000D0CDB7DEB79A8389830E94E101809138
:100120001A0190911B01019690931B0180931A0173
:1001300080911A0190911B012AE030E0B9010E94E0
:100140006A10009799F48BE290E02BE230E0F9011D
:10015000308120E42327FC0120838091600190916D
:1001600061012AE131E0B9010E94D7040E94E9014E
:10017000D4CF0F931F93DF93CF93CDB7DEB76497A0
:100180000FB6F894DEBF0FBECDBF9C8B8B8B01C02A
:1001900000008091600190916101FC01868197814E
:1001A00018161906ACF70E94E10180916001909148
:1001B00061010E948E059A83898389819A81FC015D
:1001C000808191819C838B8300D000D000D08DB73B
:1001D0009EB7019620E231E0FC013183208320E0CC
:1001E00031E0FC01338322832B813C81FC01358388
:1001F00024830E941B128DB79EB706960FB6F89403
:100200009EBF0FBE8DBF80E291E00E948B0A80E00E
:1002100090E0A0EFB1E48D839E83AF83B8876D81BA
:100220007E818F81988520E030E04AE755E40E9486
:10023000EA0CDC01CB0189879A87AB87BC8711E088
:1002400069857A858B859C8520E030E040E85FE316
:100250000E94440E88230CF010E0112329F081E065
:1002600090E09E878D8746C011E069857A858B85F1
:100270009C8520E03FEF4FE757E40E94E40D1816FD
:100280000CF010E0112361F16D817E818F819885E2
:1002900020E030E040E251E40E94EA0CDC01CB01B6
:1002A000BC01CD010E94160BDC01CB019E878D871E
:1002B00012C080E991E0988B8F878F8598898C0197
:1002C000F8013197F1F78F01188B0F878D859E8587
:1002D00001979E878D878D859E85009751F717C062
:1002E00069857A858B859C850E94160BDC01CB0184
:1002F0009E878D878D859E859A8B898B89899A8922
:100300008C01C8010197F1F78C011A8B098B0E94AF
:10031000E9018BE290E02BE230E0F901308120E24C
:100320002327FC01208335CFDF93CF93CDB7DEB7F2
:100330008AE090E062E070E00E94290490936101FD
:10034000809360018AE290E02AE230E0F9012081A6
:100350002C6FFC0120838BE290E02BE230E0F9016E
:1003600020812068FC01208310921B0110921A0149
:10037000CF91DF910895DF93CF93CDB7DEB70E9481
:100380004609F8940E94B4080E94940183E590E025
:1003900060E070E040E050E00E94CE0886E890E027
:1003A00061E070E040E050E00E94CE0889EB90E010
:1003B00061E070E040E050E00E94CE080E942B090E
:1003C000FFCFDF93CF93CDB7DEB7F894CF91DF9116
:1003D0000895DF93CF93CDB7DEB77894CF91DF91B7
:1003E0000895DF93CF9300D000D0CDB7DEB79C83C4
:1003F0008B838CE090E00E94D8109A838983898156
:100400009A81009761F48BE290E02BE230E0F901F1
:1004100020812061FC01208380E090E050C0898130
:100420009A81FC011182108289819A812B813C8101
:10043000FC013383228389819A8122E030E0FC0130
:100440003583248389819A8124E030E0FC0137835D
:10045000268389819A81FC018681978129813A814D
:10046000F90124813581B9010E94B4109C01898170
:100470009A81FC013187208789819A81FC018085DE
:100480009185009781F489819A810E9472118BE293
:1004900090E02BE230E0F90120812061FC01208313
:1004A00080E090E00CC089819A81FC012085318533
:1004B00089819A81FC013387228789819A810F90F3
:1004C0000F900F900F90CF91DF910895DF93CF930E
:1004D00000D000D000D0CDB7DEB79E838D830E94C0
:1004E000E1018D819E81009739F08D819E81FC0113
:1004F00080819181009719F00E94E901CAC08D8125
:100500009E81FC0182819381181619060CF4B2C0F9
:100510008D819E81FC018281938122273327281BB4
:10052000390B8D819E81FC018681978128173907BF
:1005300064F08BE290E02BE230E0F9012081206151
:10054000FC0120830E94E901A4C080910A019091DE
:100550000B01FFEF8F3F9F0761F48BE290E02BE2EE
:1005600030E0F90120812061FC0120830E94E90133
:1005700090C080910A0190910B014FE051E0849F5F
:100580009001859F300D949F300D112427583D4FC9
:10059000F901208131812F5F3F4F6FE071E0869F2D
:1005A000A001879F500D969F500D1124CA018758B6
:1005B0009D4FFC01318320838D819E81FC018285CA
:1005C00093859C018D819E81FC0180859185281BEE
:1005D000390B8D819E81FC0182819381662777276B
:1005E000681B790B8D819E81FC0144815581649F3C
:1005F000C001659F900D749F900D1124820F931F71
:100600002D813E81F901668177812D813E81F9013D
:1006100044815581649F9001659F300D749F300D1A
:100620001124B9010E9456109A8389838D819E817D
:10063000FC012085318589819A81820F931F9C83DB
:100640008B838B819C8120910A0130910B01FC01ED
:10065000318320838D819E81FC01828193819C0165
:10066000215030408D819E81FC01338322830E9482
:10067000BF070DC08D819E81FC01828193819C0109
:10068000215030408D819E81FC01338322830E9462
:10069000E90126960FB6F894DEBF0FBECDBFCF910D
:1006A000DF910895DF93CF9300D000D0CDB7DEB7B0
:1006B0009C838B830E94E1018B819C81009741F098
:1006C0008B819C81DC018D919C911197009719F091
:1006D0000E94E901B7C08B819C81FC0182819381DA
:1006E00099230CF095C080910A0190910B01FFEFC6
:1006F0008F3F9F0719F40E94E901A4C08B819C8160
:10070000DC011A968D919C911B97FC01808191814F
:100710009A83898349815A812FE031E0429FC00149
:10072000439F900D529F900D112487589D4FDC01DF
:100730008D919C919C012150304069817A814FE0DC
:1007400051E0649FC001659F900D749F900D11242E
:1007500087589D4FFC01318320838B819C81DC0174
:1007600012968D919C9113979C012F5F3F4F8B8127
:100770009C81FC01338322838B819C81DC011A964E
:100780002D913C911B978B819C81FC0184819581EB
:10079000280F391F8B819C81DC011B963C932E9383
:1007A0001A978B819C81FC01228533858B819C81EA
:1007B000DC0118964D915C9119978B819C81FC010D
:1007C00082819381EE27FF27E81BF90B8B819C81A7
:1007D000DC0114966D917C911597E69FC001E79F0F
:1007E000900DF69F900D1124840F951F281739073F
:1007F00061F48B819C81FC01208531858B819C81FA
:10080000DC011B963C932E931A970E94BF0718C0D9
:100810008B819C81FC0182819381F7E281319F076A
:100820007CF48B819C81DC0112968D919C911397B5
:100830009C012F5F3F4F8B819C81FC01338322837E
:100840000E94E9010F900F900F900F90CF91DF91D0
:100850000895DF93CF9300D000D000D0CDB7DEB79E
:100860009C838B837E836D83809162019091630171
:10087000009741F480E090E00E94F10190936301C1
:10088000809362018091640190916501009741F429
:1008900080E090E00E94F1019093650180936401F3
:1008A0008091620190916301009731F08091640121
:1008B00090916501009761F48BE290E02BE230E0CB
:1008C000F90120812061FC01208380E090E066C076
:1008D0008CE090E00E94D8109A83898389819A8164
:1008E000009761F48BE290E02BE230E0F901208187
:1008F0002061FC01208380E090E050C089819A81D2
:1009000021E030E0FC013183208389819A81FC0160
:100910001382128289819A812D813E81FC01358367
:10092000248389819A812B813C81FC013783268332
:1009300089819A81FC018681978129813A81F90117
:1009400024813581B9010E94B4109C0189819A816A
:10095000FC013187208789819A81FC0180859185FE
:10096000009781F489819A810E9472118BE290E054
:100970002BE230E0F90120812061FC01208380E03E
:1009800090E00CC089819A81FC01208531858981A4
:100990009A81FC013387228789819A8126960FB636
:1009A000F894DEBF0FBECDBFCF91DF910895DF93E6
:1009B000CF93CDB7DEB72A970FB6F894DEBF0FBE40
:1009C000CDBF98878F837A8769870E94E1018F81E5
:1009D0009885009741F08F819885FC0180819181F5
:1009E0008130910561F00E94E9018FC0809164011E
:1009F000909165010E9466020E94E10101C0000021
:100A00008F819885FC01228133818F819885FC013B
:100A1000868197812817390749F38F819885FC01D2
:100A2000828593859C018F819885FC0180859185C5
:100A3000281B390B8F819885FC01628173818F811E
:100A40009885FC0144815581649FC001659F900D8C
:100A5000749F900D1124820F931F2F813885F90107
:100A6000668177812F813885F90144815581649FA2
:100A70009001659F300D749F300D1124B9010E94C3
:100A800056109C838B838F819885FC01208531854E
:100A90008B819C81820F931F9E838D831A82198282
:100AA00015C02D813E8189819A81820F931F4985CE
:100AB0005A8529813A81240F351FF9012081FC01D3
:100AC000208389819A8101969A8389838F81988571
:100AD000FC012481358189819A81821793070CF367
:100AE0008F819885FC01828193819C012F5F3F4F0C
:100AF0008F819885FC0133832283809162019091DC
:100B000063010E9452030E94E9012A960FB6F894ED
:100B1000DEBF0FBECDBFCF91DF910895DF93CF939E
:100B200000D000D0CDB7DEB79C838B830E94E1015B
:100B30008B819C81009749F08B819C81DC018D9198
:100B40009C9111978130910571F00E94E9017BC061
:100B50000E94E90180916201909163010E94660206
:100B60000E94E10101C000008B819C81FC01828117
:100B700093811816190664F78B819C81DC011A9603
:100B80008D919C911B979A8389838B819C81FC0119
:100B9000228533858B819C81DC0114968D919C91FB
:100BA0001597280F391F8B819C81FC013387228781
:100BB0008B819C81DC011A962D913C911B978B8136
:100BC0009C81FC01408551858B819C81DC011296C2
:100BD000ED91FC9113978B819C81DC0114966D91B2
:100BE0007C911597E69FC001E79F900DF69F900DB1
:100BF0001124840F951F2817390761F48B819C817C
:100C0000FC01208531858B819C81DC011B963C9306
:100C10002E931A978B819C81FC01828193819C0188
:100C2000215030408B819C81DC0113963C932E93A4
:100C3000129780916401909165010E9452030E9475
:100C4000E90189819A810F900F900F900F90CF91B9
:100C5000DF910895DF93CF9300D0CDB7DEB79A83AD
:100C600089830E94E10189819A81009791F08981AD
:100C70009A81FC0180859185009739F089819A815C
:100C8000FC01808591850E94721189819A810E9460
:100C900072110E94E9010F900F90CF91DF9108959A
:100CA000DF93CF9300D0CDB7DEB79A838983F894D2
:100CB00089819A8190930B0180930A0140910A01E6
:100CC00050910B012FE031E0429FC001439F900DF6
:100CD000529F900D112484599E4F21E030E0FC0179
:100CE0003183208340910A0150910B012FE031E0C4
:100CF000429FC001439F900D529F900D112489582F
:100D00009D4FFC011182108240910A0150910B010C
:100D10002FE031E0429FC001439F900D529F900D04
:100D20001124865F9E4F84599E4FAA2797FDA09558
:100D3000BA2F8093660190936701A0936801B093E6
:100D40006901A0916601B0916701ADBFBEBF789403
:100D500040910A0150910B012FE031E0429FC00108
:100D6000439F900D529F900D112480599E4FFC017E
:100D70002081318160910A0170910B014FE051E0B7
:100D8000649FC001659F900D749F900D11248E5833
:100D90009E4FFC0180819181F90109950F900F9080
:100DA000CF91DF910895DF93CF93CDB7DEB7F8945D
:100DB000CF91DF910895DF93CF93CDB7DEB77894CD
:100DC000CF91DF910895DF93CF93CDB7DEB78091B8
:100DD0000A0190910B018530910544F480910A013C
:100DE00090910B012FEF8F3F92074CF48BE290E034
:100DF0002BE230E0F90120812061FC0120838FEF9C
:100E00009FEF90931D0180931C018FEF9FEF9093B4
:100E100009018093080110926B0110926A019CC035
:100E200040916A0150916B012FE031E0429FC00177
:100E3000439F900D529F900D112487589D4FFC01A8
:100E400080819181009721F180916A0190916B01DD
:100E50004FE051E0849F9001859F300D949F300DAD
:100E6000112429583D4FF901208131812F5F3F4FD7
:100E70006FE071E0869FA001879F500D969F500DF7
:100E80001124CA0189589D4FFC01318320835BC026
:100E900040916A0150916B012FE031E0429FC00107
:100EA000439F900D529F900D112489589D4FFC0136
:100EB0002081318180911C0190911D01821793073F
:100EC000FCF480916A0190916B01909309018093E9
:100ED000080140916A0150916B012FE031E0429F7F
:100EE000C001439F900D529F900D112489589D4F32
:100EF000FC018081918190931D0180931C0123C08E
:100F000080916A0190916B014FE051E0849F9001C4
:100F1000859F300D949F300D112429583D4FF901C4
:100F2000208131812F5F3F4F6FE071E0869FA001EC
:100F3000879F500D969F500D1124CA0189589D4FCF
:100F4000FC013183208380916A0190916B010196AD
:100F500090936B0180936A0120916A0130916B013B
:100F600080911E0190911F01281739070CF458CF6A
:100F70008091080190910901CF91DF9108958091AE
:100F80000A0190910B018530910544F480910A018A
:100F900090910B012FEF8F3F920764F48BE290E06A
:100FA0002BE230E0F901308120E12327FC0120838E
:100FB000089509C080910A0190910B01FFEF8F3FC6
:100FC0009F0709F408950E94E30690930901809316
:100FD0000801809108019091090199230CF408956A
:100FE000F8940F920FB60F921F9211242F923F92F6
:100FF0004F925F926F927F928F929F92AF92BF9229
:10100000CF92DF92EF92FF920F931F932F933F9314
:101010004F935F936F937F938F939F93AF93BF9300
:10102000CF93DF93EF93FF93ADB7BEB7B093670154
:10103000A093660160910A0170910B018091660195
:1010400090916701A0916801B09169014FE051E072
:10105000649F9001659F300D749F300D11242C58B2
:101060003E4FF90180839183A283B383809108016D
:101070009091090190930B0180930A0180910A01DC
:1010800090910B01AC012FE031E0429FC001439FE2
:10109000900D529F900D112484599E4F9A838983FD
:1010A00089819A81FC0180819181009709F451C066
:1010B00089819A81855F9E4FFC0111821082409147
:1010C0000A0150910B012FE031E0429FC001439F84
:1010D000900D529F900D11248C589E4FFC018081E1
:1010E0009181A281B3818093660190936701A0935F
:1010F0006801B09369018091660190916701A091A8
:101100006801B09169018DBF9EBFFF91EF91DF91A2
:10111000CF91BF91AF919F918F917F916F915F918F
:101120004F913F912F911F910F91FF90EF90DF9082
:10113000CF90BF90AF909F908F907F906F905F9077
:101140004F903F902F901F900F900FBE0F9078946C
:1011500006C080910A0190910B010E9450060895EB
:10116000F8940E94BF071895DF93CF93CDB7DEB7F1
:1011700086E490E0FC01108287E490E024E6FC0124
:10118000208384E490E022E0FC01208385E490E069
:1011900025E0FC012083CF91DF910895DF93CF9369
:1011A000CDB7DEB728970FB6F894DEBF0FBECDBF20
:1011B0009C838B837E836D8358874F8380911E0130
:1011C00090911F01843091051CF08FEF9FEF3AC082
:1011D00080911E0190911F01BC014FE051E0649F7E
:1011E0009001659F300D749F300D112424593E4F9E
:1011F0003A832983019690931F0180931E01898170
:101200009A812B813C81FC013583248389819A81D9
:101210002D813E81FC013383228389819A812F8134
:101220003885FC013783268389819A81FC011182EC
:10123000108289819A81835F9E4FFC011182108206
:1012400080E090E028960FB6F894DEBF0FBECDBFC9
:10125000CF91DF910895DF93CF93CDB7DEB78EE6C0
:1012600090E02EE630E0F90120812260FC0120832D
:10127000789410920B0110920A0180910A019091CA
:101280000B010E945006CF91DF910895DF93CF9319
:10129000CDB7DEB7F8941092F3051092F2051092D4
:1012A0003706109236061092F5051092F40510924A
:1012B000EF051092EE051092F1051092F0051092D4
:1012C000ED051092EC0584EC90E027E6FC0120830C
:1012D00085EC90E0FC01108282EC90E026E0FC01BD
:1012E000208381EC90E028E9FC01208380EC90E0F1
:1012F000FC0110827894CF91DF9108951F920F9294
:101300000FB60F9211242F933F935F936F937F93A8
:101310008F939F93AF93BF93EF93FF93DF93CF93FD
:10132000CDB7DEB7F8948091F2059091F305009760
:1013300051F481EC90E021EC30E0F90120812F7B29
:10134000FC01208323C086EC90E02091F4053091CD
:10135000F5052A503A4FF9012081FC012083809144
:10136000F4059091F505019620E430E0B9010E9462
:101370006A109093F5058093F4058091F2059091A1
:10138000F30501979093F3058093F2057894CF913C
:10139000DF91FF91EF91BF91AF919F918F917F91DD
:1013A0006F915F913F912F910F900FBE0F901F9003
:1013B00018951F920F920FB60F9211242F933F93FF
:1013C0005F936F937F938F939F93AF93BF93EF93AD
:1013D000FF93DF93CF930F92CDB7DEB7F89486ECEF
:1013E00090E0FC01808189838091EC059091ED056E
:1013F0008038910504F58091EE059091EF058455B4
:101400009A4F2981FC0120838091EE059091EF0590
:10141000019620E830E0B9010E946A109093EF0530
:101420008093EE058091EC059091ED0501969093E7
:10143000ED058093EC0578940F90CF91DF91FF91AB
:10144000EF91BF91AF919F918F917F916F915F913C
:101450003F912F910F900FBE0F901F901895DF9323
:10146000CF9300D000D000D0CDB7DEB79C838B8364
:101470007E836D83F8941A82198223C089819A81B0
:101480002B813C81820F931F2091F0053091F10553
:1014900024553A4FF9012081FC0120838091F00509
:1014A0009091F105019620E830E0B9010E946A10A0
:1014B0009093F1058093F00589819A8101969A8332
:1014C00089838091EC059091ED0529813A81281757
:1014D0003907A4F28091F0059091F1052B813C81B0
:1014E000820F931FFC0110822091EC053091ED05D5
:1014F0008D819E81FC01318320831092ED05109235
:10150000EC05789426960FB6F894DEBF0FBECDBFDB
:10151000CF91DF9108950F931F93DF93CF9300D066
:1015200000D0CDB7DEB79C838B83F8941A821982E2
:1015300062C0809136069091370629813A814B81AD
:101540005C81240F351FF90120818A509A4FFC01DC
:1015500020838091360690913706019620E430E092
:10156000B9010E946A1090933706809336068091E5
:10157000F2059091F30501969093F3058093F2059F
:1015800081EC90E0FC018081882F90E08074907065
:10159000009761F586EC90E02091F4053091F50517
:1015A0002A503A4FF9012081FC0120838091F405F3
:1015B0009091F505019620E430E0B9010E946A108F
:1015C0009093F5058093F4058091F2059091F305D1
:1015D00001979093F3058093F20581EC90E021EC64
:1015E00030E0F90120812064FC01208389819A8107
:1015F00001969A83898309811A818B819C810E943B
:1016000012120817190740F48091F2059091F30522
:10161000803491050CF48DCF78940F900F900F903B
:101620000F90CF91DF911F910F910895EF92FF924C
:101630000F931F937B018C0120E030E040E05FE4DA
:101640000E94140E87FD11C0C801B70120E030E0F0
:1016500040E05FE40E94B90C0E94740E9B01AC0153
:10166000205030404040504806C0C801B7010E9499
:10167000740E9B01AC01B901CA011F910F91FF903B
:10168000EF900895A0E0B0E0E8E4FBE00C94811056
:10169000FC01EA018081823008F438C1DB019C91B1
:1016A000923008F430C1843059F4943009F02EC1DE
:1016B000918111968C911197981709F021C126C13B
:1016C000943009F420C19230B1F4823009F01EC187
:1016D000CA01AF0128E0DA010D90AD01DC010D92E5
:1016E000CD012150C1F7DB0111968C9111979181A9
:1016F000892389830AC1823009F405C1C280D3805D
:10170000DB0112966D907C90139724813581468180
:1017100057811496ED90FD900D911C911797C6017D
:10172000861997095C0197FF04C0AA24BB24A81A54
:10173000B90AB0E2AB16B1040CF061C01816190674
:101740006CF5370148010A2C04C09694879477946D
:1017500067940A94D2F781E090E0A0E0B0E00A2C10
:1017600004C0880F991FAA1FBB1F0A94D2F70197C4
:10177000A109B1098E219F21A023B123EE24FF24CA
:101780008701E3940097A105B10519F4EE24FF2425
:101790008701E628F728082919293CC00097D1F1CC
:1017A000CA0CDB1C39014A010A2C04C096948794A8
:1017B000779467940A94D2F781E090E0A0E0B0E0DB
:1017C0000A2C04C0880F991FAA1FBB1F0A94D2F7C6
:1017D0000197A109B10982239323A423B52321E012
:1017E00030E040E050E00097A105B10519F420E099
:1017F00030E0A90126293729482959290BC06C1442
:101800007D0424F4EE24FF24870104C0630120E05A
:1018100030E0A9018181FB019181891709F445C05C
:10182000882349F0D801C701821B930BA40BB50B89
:101830009C01AD0104C02E193F09400B510B57FD0F
:1018400004C01982DB82CA820BC081E08983DB82FB
:10185000CA8250954095309521953F4F4F4F5F4F2D
:101860002C833D834E835F830DC0880F991FAA1F71
:10187000BB1F8C839D83AE83BF838A819B8101972D
:101880009B838A838C819D81AE81BF819C01AD0148
:1018900021503040404050402F3FEFEF3E07EFEFE8
:1018A0004E07EFE35E0708F30BC08983DB82CA8231
:1018B0002E0D3F1D401F511F2C833D834E835F83A0
:1018C00083E088832C813D814E815F8157FF1DC05D
:1018D000DA01C90181709070A070B070569547957B
:1018E00037952795822B932BA42BB52B8C839D8327
:1018F000AE83BF838A819B8101969B838A8305C0C7
:10190000ECE0F1E003C0FB0101C0FE01CF01CDB767
:10191000DEB7EEE00C949D10A0E2B0E0E2E9FCE05E
:101920000C94891069837A838B839C832D833E83F7
:101930004F83588789E0E82EF12CEC0EFD1ECE0176
:101940000196B7010E94940F8E010F5E1F4FCE01CA
:101950000596B8010E94940FC701B801AE01475E19
:101960005F4F0E94420B0E94C60EA096E6E00C94C8
:10197000A510A0E2B0E0EFEBFCE00C9489106983C5
:101980007A838B839C832D833E834F8358878E017C
:10199000075F1F4FCE010196B8010E94940F91E19D
:1019A000E92EF12CEC0EFD1ECE010596B7010E942A
:1019B000940F8A8991E089278A8BC801B701AE010B
:1019C000475E5F4F0E94420B0E94C60EA096E6E063
:1019D0000C94A510A0E2B0E0E0EFFCE00C947D10C8
:1019E00069837A838B839C832D833E834F835887BF
:1019F000CE010196BE01675F7F4F0E94940FCE011A
:101A00000596BE016F5E7F4F0E94940F99859230BC
:101A100078F089898230C0F0943019F4823041F432
:101A2000CBC0843019F4923079F4C6C0923051F4AE
:101A300081E02A859A89291709F480E08A87CE01F6
:101A40000996BCC0823051F481E02A859A89291711
:101A500009F480E08A8BCE014196B0C06D847E840B
:101A60008F849888ED88FE880F89188DE0E2F0E079
:101A700080E090E0DC01AA24BB24650120E030E096
:101A8000A901B3016170707061157105D1F02E0D5F
:101A90003F1D401F511F15012601280E391E4A1EE9
:101AA0005B1E81E090E0A0E0B0E02E153F0540070E
:101AB000510718F080E090E0DC01820D931DA41D19
:101AC000B51DAA0CBB1CCC1CDD1C17FF09C061E0B6
:101AD000262E312C412C512CA228B328C428D528DD
:101AE000319749F0EE0CFF1C001F111F969487944C
:101AF00077946794C6CF6B897C89EB85FC856E0FE4
:101B00007F1F6E5F7F4F7C8F6B8F61E0EA857A89E4
:101B1000E71709F460E06A8F6B8D7C8D10C0FC01C3
:101B2000E170F070309729F05695479537952795D5
:101B30005068B695A795979587956F5F7F4FB7FDCE
:101B4000EECF0CC0880F991FAA1FBB1F57FD8160E5
:101B5000220F331F441F551F615070408030E0E05A
:101B60009E07E0E0AE07E0E4BE0760F36B8F7C8F7A
:101B70006FE7E62EF12C012D112DE822F9220A2320
:101B80001B2360E4E616F1040105110561F487FDED
:101B90000AC0211531054105510529F0805C9F4F90
:101BA000AF4FBF4F80788D8F9E8FAF8FB8A383E0EC
:101BB000898FCE01499602C08CE091E00E94C60E4A
:101BC000A096E2E10C949910A8E1B0E0EAEEFDE005
:101BD0000C94891069837A838B839C832D833E8345
:101BE0004F8358878E01075F1F4FCE010196B801C2
:101BF0000E94940F81E1E82EF12CEC0EFD1ECE0127
:101C00000596B7010E94940F8985823040F089893A
:101C1000823028F0C801B7010E94FD0F01C08FEF8C
:101C20006896E6E00C94A510A8E1B0E0EAE1FEE0D9
:101C30000C94891069837A838B839C832D833E83E4
:101C40004F8358878E01075F1F4FCE010196B80161
:101C50000E94940F81E1E82EF12CEC0EFD1ECE01C6
:101C60000596B7010E94940F8985823040F08989DA
:101C7000823028F0C801B7010E94FD0F01C08FEF2C
:101C80006896E6E00C94A510A8E1B0E0EAE4FEE076
:101C90000C94891069837A838B839C832D833E8384
:101CA0004F8358878E01075F1F4FCE010196B80101
:101CB0000E94940F81E1E82EF12CEC0EFD1ECE0166
:101CC0000596B7010E94940F8985823040F089897A
:101CD000823028F0C801B7010E94FD0F01C081E0E9
:101CE0006896E6E00C94A510ACE0B0E0EAE7FEE010
:101CF0000C948D1069837A838B839C83CE0101962B
:101D0000BE016B5F7F4F0E94940F8D81823081F105
:101D1000823070F1843021F48E81882369F10AC009
:101D20002F81388537FD24C06E812F3131053CF07D
:101D3000662311F120E030E040E050E821C08EE160
:101D400090E0821B930B29853A854B855C8504C006
:101D500056954795379527958A95D2F7662381F052
:101D600050954095309521953F4F4F4F5F4F08C09C
:101D700020E030E0A90104C02FEF3FEF4FEF5FE715
:101D8000B901CA012C96E2E00C94A910EF92FF92DF
:101D90000F931F93CF93DF93FC01248135814681FC
:101DA000578161818081823020F44061EFEFF0E063
:101DB000A3C0843009F49BC0823009F492C021157D
:101DC00031054105510509F48FC00280F381E02DF2
:101DD0008FEFE238F8070CF05AC0C2E8DFEFCE1BF5
:101DE000DF0BCA31D1056CF579018A010C2E04C0D4
:101DF00016950795F794E7940A94D2F781E090E05E
:101E0000A0E0B0E00C2E04C0880F991FAA1FBB1FD2
:101E10000A94D2F70197A109B10982239323A4233D
:101E2000B52321E030E040E050E00097A105B10586
:101E300019F420E030E0A9012E293F29402B512B35
:101E400003C020E030E0A901DA01C9018F7790706A
:101E5000A070B07080349105A105B10539F427FF59
:101E600009C0205C3F4F4F4F5F4F04C0215C3F4F84
:101E70004F4F5F4FE1E0F0E0203080E0380780E036
:101E8000480780E4580728F5E0E0F0E022C0E03899
:101E9000F1056CF5E158FF4FDA01C9018F779070B9
:101EA000A070B07080349105A105B10539F427FF09
:101EB00009C0205C3F4F4F4F5F4F04C0215C3F4F34
:101EC0004F4F5F4F57FF05C056954795379527955C
:101ED000319687E056954795379527958A95D1F79E
:101EE0000BC0E0E0F0E005C0E0E0F0E005C0EFEF9F
:101EF000F0E020E030E0A9018E2F879588278795B4
:101F0000942F9F77679566276795E695E22EA92F10
:101F1000A82BFE2FF62B622F732F8A2F9F2FCDB762
:101F2000DEB7E6E00C94A510DC01FB012C911196C4
:101F30003C91119712968C911297482F4F7750E051
:101F4000982F991F9927991F13966C911397862F95
:101F5000880F892B90E0661F6627661F61830097B4
:101F600039F5211531054105510511F482E029C0EB
:101F700082E89FEF9383828367E0220F331F441F21
:101F8000551F6A95D1F783E0808309C0220F331F64
:101F9000441F551F82819381019793838283203050
:101FA00080E0380780E0480780E4580778F320C0D5
:101FB0008F3F910579F4211531054105510519F43B
:101FC00084E08083089544FF03C081E0808310C0D3
:101FD00010820EC08F5790409383828383E080836A
:101FE00087E0220F331F441F551F8A95D1F7506495
:101FF00024833583468357830895FC01DB01908158
:10200000923008F449C08C91823008F445C0943075
:1020100051F461818430B1F511962C91119730E023
:10202000261B310941C0843021F0923041F48230C6
:10203000B1F111968C9111978823A1F12DC0618186
:10204000823001F111968C9111976817D9F4228191
:10205000338112968D919C9113978217930794F078
:1020600028173907BCF024813581468157811496A1
:102070008D919D910D90BC91A02D82179307A4077F
:10208000B50718F4662341F00DC0281739074A0731
:102090005B0728F4662331F021E030E005C020E042
:1020A00030E002C02FEF3FEFC9010895AA1BBB1B10
:1020B00051E107C0AA1FBB1FA617B70710F0A61B48
:1020C000B70B881F991F5A95A9F780959095BC0169
:1020D000CD01089597FB092E07260AD077FD04D07D
:1020E000E5DF06D000201AF4709561957F4F0895C2
:1020F000F6F7909581959F4F08952F923F924F92BA
:102100005F926F927F928F929F92AF92BF92CF9287
:10211000DF92EF92FF920F931F93CF93DF93CDB790
:10212000DEB7CA1BDB0B0FB6F894DEBF0FBECDBF08
:1021300009942A88398848885F846E847D848C84D9
:102140009B84AA84B984C884DF80EE80FD800C81E2
:102150001B81AA81B981CE0FD11D0FB6F894DEBFC5
:102160000FBECDBFED010895EF92FF920F931F9325
:10217000CF93DF93689F8001699F100D789F100DAA
:102180001124C8010E94D810E82EE7017E01F92E23
:10219000E701209731F08E2D60E070E0A8010E94E9
:1021A0000B127E01CE01CDB7DEB7E6E00C94A51090
:1021B000CF93DF938230910510F482E090E0E091BC
:1021C0003A06F0913B0640E050E020E030E026C0C7
:1021D0006081718168177907E0F06817790781F4E9
:1021E000828193812115310531F0D90113969C9399
:1021F0008E9312972BC090933B0680933A0626C08D
:102200004115510519F06417750718F4AB01E90180
:10221000DF019F0172816381E72FF62F3097C1F6AE
:102220004115510501F1481B590B4430510580F40B
:1022300012968D919C911397209719F09B838A8316
:1022400004C090933B0680933A06FD01329646C047
:10225000FD01E40FF51F8193919342505040119678
:102260005C934E933BC0209138063091390621157E
:10227000310541F420911601309117013093390650
:10228000209338062091180130911901211531054C
:1022900041F42DB73EB74091140150911501241B14
:1022A000350BE0913806F0913906E217F307A0F4F8
:1022B0002E1B3F0B2817390778F0AC014E5F5F4F9C
:1022C0002417350748F04E0F5F1F5093390640938F
:1022D00038068193919302C0E0E0F0E0CF01DF91F6
:1022E000CF910895CF93DF93009709F491C0FC013B
:1022F00032971382128260913A0670913B06611503
:10230000710581F420813181280F391F80913806B1
:10231000909139068217930799F5F0933906E09367
:10232000380676C0DB0180E090E002C0CD01D90123
:10233000AE17BF0748F412962D913C9113972115C3
:102340003105A1F7CD0121C0B383A283EF014991EB
:1023500059919E01240F351FA217B30779F42D91CF
:102360003C911197240F351F2E5F3F4F31832083FF
:1023700012962D913C91139733832283009729F471
:10238000F0933B06E0933A0643C0DC011396FC93BE
:10239000EE9312974D915D91A40FB51FEA17FB07BD
:1023A00069F420813181240F351F2E5F3F4FEC01EE
:1023B00039832883228133813B832A83E0E0F0E064
:1023C00002C0FB01BC01DB0112968D919C91139719
:1023D0000097B9F79B012E5F3F4F8D919C9111970C
:1023E000820F931F409138065091390648175907BC
:1023F00079F4309729F410923B0610923A0602C005
:1024000013821282225030403093390620933806CE
:10241000DF91CF910895DC0101C06D934150504090
:10242000E0F70895FC0101900020E9F78095909570
:102430008E0F9F1F0895AEE0B0E0E1E2F2E10C9450
:102440008B100D891E8986E08C831A8309838FEF98
:102450009FE79E838D839E01275E3F4FCE010196AD
:102460006F89788DA9010E943E12EF81F885E00FF7
:10247000F11F10822E96E4E00C94A710ACE0B0E0BF
:10248000E4E4F2E10C947D106C011B018A01FC0173
:1024900017821682838181FFD1C12E010894411CCD
:1024A000511CF6019381F10193FD859193FF819178
:1024B0001F01882309F4BEC1853239F493FD85914B
:1024C00093FF81911F01853229F490E0B6010E94AB
:1024D0003B14E7CFEE24FF2420E02032B0F48B320F
:1024E00069F08C3228F4803251F0833271F40BC0E1
:1024F0008D3239F0803349F421602CC02260246091
:1025000029C0286027C0206125C027FD2CC0382F96
:1025100030533A3098F426FF08C08E2D880FE82EED
:10252000EE0CEE0CE80EE30E15C08F2D880FF82E82
:10253000FF0CFF0CF80EF30E20620CC08E3221F45B
:1025400026FD78C1206406C08C3611F4206802C0D4
:10255000883649F4F10193FD859193FF81911F0124
:10256000882309F0BACF982F9554933018F09052E1
:10257000933028F40C5F1F4FFFE3F9830DC08336BF
:1025800031F0833771F0833509F060C022C0F80163
:10259000808189830E5F1F4F420171E0A72EB12C0D
:1025A00016C062E0662E712C600E711EF8018080EC
:1025B000918026FF03C06E2D70E002C06FEF7FEFA9
:1025C000C4012C870E9430145C0183012C852F7775
:1025D00017C052E0652E712C600E711EF8018080CC
:1025E000918026FF03C06E2D70E002C06FEF7FEF79
:1025F000C4012C870E9425145C012C85206883016E
:1026000023FD20C008C080E290E0B6012C870E9424
:102610003B14FA942C858F2D90E0A816B90698F3F8
:1026200011C0F40127FD859127FF81914F0190E0B2
:10263000B6012C870E943B142C85F110FA94089463
:10264000A108B108A114B10461F7F1C0843611F0FA
:10265000893649F527FF08C0F801608171818281C0
:1026600093810C5F1F4F09C0F80160817181882739
:1026700077FD8095982F0E5F1F4F4FE6B42EB22244
:1026800097FF09C090958095709561957F4F8F4F0A
:102690009F4FF0E8BF2AA2012AE030E00E946714B1
:1026A000782E741845C0853731F43FEEB32EB22230
:1026B0002AE030E025C099EFB92EB2228F36C1F062
:1026C000803720F4883509F0B5C00DC0803721F07F
:1026D000883709F0AFC002C020E1B22AB4FE0BC0B7
:1026E00084E0B82A08C0B4FE09C0E6E0BE2A06C0ED
:1026F00028E030E005C020E130E002C020E132E017
:10270000B7FE08C0F80160817181828193810C5FFE
:102710001F4F07C0F8016081718180E090E00E5F7B
:102720001F4FA2010E946714782E7418FFE7BF2282
:10273000B6FE0BC02EEFB2227E1438F4B4FE07C0F2
:10274000B2FC05C08FEEB82202C0A72C01C0AE2C8F
:102750008B2D90E0B4FE0DC0FE01E70DF11D208130
:10276000203319F4E9EEBE2209C0A394B2FE06C0DC
:1027700004C086789070009709F0A3948B2C99245C
:10278000B3FC14C0B0FE0FC0AF1428F4E72CEF0C5C
:10279000EA18AF2C08C0E72C06C080E290E0B60132
:1027A0000E943B14A394AF14C0F304C0AF1410F400
:1027B000FA1801C0FF2484FE0FC080E390E0B60148
:1027C0000E943B1482FE1FC081FE03C088E590E09A
:1027D00010C088E790E00DC0C40186789070009723
:1027E00091F081FC02C080E201C08BE2B7FC8DE277
:1027F00090E0B6010E943B1406C080E390E0B60171
:102800000E943B14EA947E14C0F37A94F201E70D1F
:10281000F11D808190E0B6010E943B147720A9F75A
:1028200006C080E290E0B6010E943B14FA94FF20BB
:10283000C1F737CEF6012681378102C02FEF3FEF77
:10284000C9012C96E2E10C949910FC0105906150AD
:1028500070400110D8F7809590958E0F9F1F0895B6
:10286000FC016150704001900110D8F7809590955F
:102870008E0F9F1F08950F931F93CF93DF938C01AB
:10288000EB018B8181FF1BC082FF0DC02E813F8138
:102890008C819D812817390764F4E881F9810193BF
:1028A000F983E88306C0E885F985802F09950097AC
:1028B00031F48E819F8101969F838E8302C00FEF3A
:1028C0001FEFC801DF91CF911F910F910895FA0179
:1028D000AA27283051F1203181F1E8946F936E7F5F
:1028E0006E5F7F4F8F4F9F4FAF4FB1E03ED0B4E050
:1028F0003CD0670F781F891F9A1FA11D680F791F91
:102900008A1F911DA11D6A0F711D811D911DA11DA1
:1029100020D009F468943F912AE0269F11243019B1
:10292000305D3193DEF6CF010895462F4770405D4C
:102930004193B3E00FD0C9F7F6CF462F4F70405DFB
:102940004A3318F0495D31FD4052419302D0A9F756
:10295000EACFB4E0A6959795879577956795BA9550
:10296000C9F700976105710508959B01AC010A2E16
:1029700006945795479537952795BA95C9F7620FED
:0E298000731F841F951FA01D0895F894FFCFAC
:10298E00723A2564200A0D00FFFFFFFF00000000D1
:0A299E000000000020003C060000CD
:00000001FF
