:100000000C9434000C9451000C9451000C94510049
:100010000C9451000C9451000C9451000C9451001C
:100020000C9451000C9451000C9451000C9451000C
:100030000C9451000C9451000C9425050C94510023
:100040000C9451000C9451000C944E060C945100E9
:100050000C94F3050C9451000C9451000C94510035
:100060000C9451000C94510011241FBECFEFD8E026
:10007000DEBFCDBF11E0A0E0B1E0E8E7F2E202C0F0
:1000800005900D92A032B107D9F716E0A0E2B1E0D9
:1000900001C01D92A631B107E1F70E9495010C94B1
:1000A0003A110C940000DF93CF9300D0CDB7DEB7A8
:1000B0009A83898380912801909129010E94F701F8
:1000C00080912401909125012AE030E0B9010E943D
:1000D000CB0C009789F48091240190912501009721
:1000E00059F08091260190912701209124013091AF
:1000F0002501B9010E946A02809124019091250195
:10010000019690932501809324018091280190917C
:1001100029010E940702CECFDF93CF9300D0CDB745
:10012000DEB79A83898380912801909129010E94EA
:10013000F70180912401909125012AE030E0B90176
:100140000E94CB0C009731F48091240190912501FD
:10015000009749F480912401909125010196909394
:1001600025018093240180912801909129010E940A
:100170000702D9CF0F931F93DF93CF93CDB7DEB78D
:1001800062970FB6F894DEBF0FBECDBF9A8B898BF6
:1001900080912601909127010E94C3029A8389834E
:1001A000F89400D000D000D08DB79EB701962AE217
:1001B00031E0FC013183208320E031E0FC01338316
:1001C000228329813A81FC01358324830E94900E89
:1001D0008DB79EB706960FB6F8949EBF0FBE8DBF23
:1001E0008AE291E00E940007789480E090E0A0E726
:1001F000B1E48B839C83AD83BE836B817C818D81D5
:100200009E8120E030E04AE755E40E945F09DC016E
:10021000CB018F839887A987BA8711E06F81788592
:1002200089859A8520E030E040E85FE30E94B90AC2
:1002300088230CF010E0112329F081E090E09C87E6
:100240008B8746C011E06F81788589859A8520E08B
:100250003FEF4FE757E40E94590A18160CF010E0E0
:10026000112361F16B817C818D819E8120E030E0E2
:1002700040E251E40E945F09DC01CB01BC01CD01E9
:100280000E948B07DC01CB019C878B8712C080E921
:1002900091E09E878D878D859E858C01F801319731
:1002A000F1F78F011E870D878B859C8501979C87B1
:1002B0008B878B859C85009751F76ACF6F817885F6
:1002C00089859A850E948B07DC01CB019C878B87EF
:1002D0008B859C85988B8F878F8598898C01C80129
:1002E0000197F1F78C01188B0F8752CFDF93CF93D3
:1002F000CDB7DEB70E94BB0584E190E062E070E01C
:100300000E941902909327018093260181E090E0DA
:100310000E94D00190932901809328011092250119
:1003200010922401CF91DF910895DF93CF93CDB741
:10033000DEB70E9476010E94290583E590E060E027
:1003400070E040E050E00E9443058CE890E061E0FE
:1003500070E040E050E00E9443058AEB90E062E0EC
:1003600070E040E050E00E94430585E091E00E948B
:1003700000070E94A00580E090E0CF91DF910895F2
:10038000DF93CF93CDB7DEB7F894CF91DF91089587
:10039000DF93CF93CDB7DEB77894CF91DF910895F7
:1003A000DF93CF9300D000D0CDB7DEB79C838B8393
:1003B00084E190E062E070E00E9419029A838983F0
:1003C00089819A812B813C81FC0135832483898139
:1003D0009A812B813C81FC013783268389819A8114
:1003E0000F900F900F900F90CF91DF910895DF93B2
:1003F000CF9300D0CDB7DEB79A83898389819A8164
:100400000E94C3020F900F90CF91DF910895DF9368
:10041000CF9300D0CDB7DEB79A83898389819A8143
:1004200060E070E00E946A020F900F90CF91DF9120
:100430000895DF93CF9300D000D000D0CDB7DEB7C2
:100440009C838B837E836D838AE090E00E944D0DB8
:100450009A83898389819A81009789F18B819C8114
:100460002D813E81B9010E94290D9C0189819A81CB
:10047000FC013183208389819A81FC0180819181F3
:100480000097B9F089819A81FC01178216828981CF
:100490009A81FC011186108689819A81FC0115825E
:1004A000148289819A812B813C81FC0133832283D0
:1004B00006C089819A810E94E70D1A82198289817A
:1004C0009A8126960FB6F894DEBF0FBECDBFCF91AE
:1004D000DF910895DF93CF9300D000D0CDB7DEB782
:1004E0009A8389837C836B830E94C00189819A816E
:1004F000FC012481358189819A81FC01828193816B
:1005000028173907ECF589819A81FC012081318116
:1005100089819A81FC0186819781880F991F820FBA
:10052000931F2B813C81FC013183208389819A8137
:10053000FC0186819781019629813A81F901228106
:100540003381B9010E94CB0C9C0189819A81FC0105
:100550003783268389819A81FC01848195819C015E
:100560002F5F3F4F89819A81FC01358324830E944C
:10057000C8010F900F900F900F90CF91DF910895C9
:100580000E94C801B1CFDF93CF9300D000D0CDB788
:10059000DEB79C838B830E94C0018B819C81FC0110
:1005A00084819581181619060CF03FC08B819C81BF
:1005B000FC01208131818B819C81FC0180859185AA
:1005C000880F991F820F931FFC01808191819A836C
:1005D00089838B819C81FC018085918501962B818B
:1005E0003C81F90122813381B9010E94CB0C9C012D
:1005F0008B819C81FC01318720878B819C81FC0150
:10060000848195819C01215030408B819C81FC012B
:10061000358324830E94C80189819A810F900F90AD
:100620000F900F90CF91DF9108950E94C801B3CF32
:10063000DF93CF9300D0CDB7DEB79A8389838981CA
:100640009A81009791F089819A81FC018081918142
:10065000009739F089819A81FC01808191810E9403
:10066000E70D89819A810E94E70D0F900F90CF913D
:10067000DF910895DF93CF93CDB7DEB784E690E0A6
:1006800062E070E00E94190290933F0180933E0166
:10069000CF91DF910895DF93CF9300D0CDB7DEB730
:1006A0009A838983F89489819A8190931001809329
:1006B0000F0140910F01509110012FE031E0429F56
:1006C000C001439F900D529F900D11248A5B9E4F55
:1006D00021E030E0FC013183208340910F015091F3
:1006E00010012FE031E0429FC001439F900D529FC7
:1006F000900D11248F5A9D4FFC0111821082409160
:100700000F01509110012FE031E0429FC001439F43
:10071000900D529F900D1124865F9E4F8A5B9E4FD5
:10072000AA2797FDA095BA2F80934001909341018D
:10073000A0934201B0934301A0914001B0914101C7
:10074000ADBFBEBF789440910F01509110012FE0D2
:1007500031E0429FC001439F900D529F900D1124A4
:10076000865B9E4FFC012081318160910F01709169
:1007700010014FE051E0649FC001659F900D749F90
:10078000900D1124845B9E4FFC0180819181F901C1
:1007900009950F900F90CF91DF910895DF93CF933C
:1007A000CDB7DEB7F894CF91DF910895DF93CF9363
:1007B000CDB7DEB77894CF91DF910895DF93CF93D3
:1007C000CDB7DEB780912201909123019C01215089
:1007D000304080910F01909110018217930754F4DB
:1007E00080910F01909110010196909310018093D8
:1007F0000F0104C01092100110920F0140910F01DF
:10080000509110012FE031E0429FC001439F900DB5
:10081000529F900D11248D5A9D4FFC018081918132
:100820008130910549F480910F019091100101965A
:100830009093100180930F0180910F01909110010E
:10084000CF91DF9108950F920FB60F921F9211244E
:100850002F923F924F925F926F927F928F929F92D0
:10086000AF92BF92CF92DF92EF92FF920F931F93BE
:100870002F933F934F935F936F937F938F939F93A8
:10088000AF93BF93CF93DF93EF93FF93ADB7BEB713
:10089000B0934101A093400160910F01709110014C
:1008A0008091400190914101A0914201B09143019A
:1008B0004FE051E0649F9001659F300D749F300DB3
:1008C0001124225B3E4FF90180839183A283B3837D
:1008D0000E94DE0340910F01509110012FE031E0A2
:1008E000429FC001439F900D529F900D11248A5B3F
:1008F0009E4FFC0180819181009709F05BC040917F
:100900000F01509110012FE031E0429FC001439F41
:10091000900D529F900D11248A5B9E4F21E030E094
:10092000FC01318320838091400190914101A0918D
:100930004201B0914301885C9040A040B040809358
:10094000400190934101A0934201B09343018091F3
:10095000400190914101A0914201B0914301F8946E
:100960008DBF9EBF789440910F01509110012FE0F0
:1009700031E0429FC001439F900D529F900D112482
:10098000865B9E4FFC012081318160910F01709147
:1009900010014FE051E0649FC001659F900D749F6E
:1009A000900D1124845B9E4FFC0180819181F9019F
:1009B000099548C040910F01509110012FE031E09E
:1009C000429FC001439F900D529F900D1124825B66
:1009D0009E4FFC0180819181A281B381809340016F
:1009E00090934101A0934201B09343018091400153
:1009F00090914101A0914201B09143018DBF9EBFF2
:100A0000FF91EF91DF91CF91BF91AF919F918F9126
:100A10007F916F915F914F913F912F911F910F9116
:100A2000FF90EF90DF90CF90BF90AF909F908F900E
:100A30007F906F905F904F903F902F901F900F90FE
:100A40000FBE0F900E94D6030895F8940E942304CD
:100A50001895DF93CF93CDB7DEB786E490E0FC0125
:100A6000108287E490E024E6FC01208384E490E097
:100A700022E0FC01208385E490E025E0FC01208356
:100A8000CF91DF910895DF93CF93CDB7DEB728974D
:100A90000FB6F894DEBF0FBECDBF9C838B837E83E1
:100AA0006D8358874F838091220190912301843078
:100AB00091051CF08FEF9FEF3AC080912201909139
:100AC0002301BC014FE051E0649F9001659F300D10
:100AD000749F300D11242A5B3E4F3A83298301967F
:100AE000909323018093220189819A812B813C81FB
:100AF000FC013583248389819A812D813E81FC010B
:100B00003383228389819A812F813885FC01378341
:100B1000268389819A81FC011182108289819A81C0
:100B2000835F9E4FFC011182108280E090E0289646
:100B30000FB6F894DEBF0FBECDBFCF91DF91089501
:100B4000DF93CF93CDB7DEB78EE690E02EE630E0B0
:100B5000F90120812260FC01208378941092100119
:100B600010920F0180910F01909110010E944B0390
:100B7000CF91DF910895DF93CF93CDB7DEB7F8948F
:100B80001092CD051092CC0510921106109210060D
:100B90001092CF051092CE051092C9051092C8058B
:100BA0001092CB051092CA051092C7051092C60587
:100BB00084EC90E027E6FC01208385EC90E0FC01CA
:100BC000108282EC90E026E0FC01208381EC90E032
:100BD00028E9FC01208380EC90E0FC0110827894ED
:100BE000CF91DF9108951F920F920FB60F921124AB
:100BF0002F933F935F936F937F938F939F93AF93C5
:100C0000BF93EF93FF93DF93CF93CDB7DEB7F89405
:100C10008091CC059091CD05009751F481EC90E046
:100C200021EC30E0F90120812F7BFC01208323C0DF
:100C300086EC90E02091CE053091CF0520533A4FBD
:100C4000F9012081FC0120838091CE059091CF0590
:100C5000019620E430E0B9010E94CB0C9093CF05BF
:100C60008093CE058091CC059091CD05019790930E
:100C7000CD058093CC057894CF91DF91FF91EF91D2
:100C8000BF91AF919F918F917F916F915F913F91B4
:100C90002F910F900FBE0F901F9018951F920F92DB
:100CA0000FB60F9211242F933F935F936F937F930F
:100CB0008F939F93AF93BF93EF93FF93DF93CF9364
:100CC0000F92CDB7DEB7F89486EC90E0FC018081FE
:100CD00089838091C6059091C7058038910504F5F8
:100CE0008091C8059091C9058A579A4F2981FC01C6
:100CF00020838091C8059091C905019620E830E0D5
:100D0000B9010E94CB0C9093C9058093C8058091CE
:100D1000C6059091C70501969093C7058093C605B7
:100D200078940F90CF91DF91FF91EF91BF91AF91A8
:100D30009F918F917F916F915F913F912F910F9034
:100D40000FBE0F901F901895DF93CF9300D000D067
:100D500000D0CDB7DEB79C838B837E836D83F89400
:100D60001A82198223C089819A812B813C81820F4A
:100D7000931F2091CA053091CB052A573A4FF901AC
:100D80002081FC0120838091CA059091CB050196BA
:100D900020E830E0B9010E94CB0C9093CB05809302
:100DA000CA0589819A8101969A8389838091C605B3
:100DB0009091C70529813A8128173907A4F28091BB
:100DC000CA059091CB052B813C81820F931FFC01BA
:100DD00010822091C6053091C7058D819E81FC014E
:100DE000318320831092C7051092C6057894269609
:100DF0000FB6F894DEBF0FBECDBFCF91DF9108953F
:100E00000F931F93DF93CF9300D000D0CDB7DEB701
:100E10009C838B83F8941A82198262C08091100699
:100E20009091110629813A814B815C81240F351FF5
:100E3000F901208180539A4FFC0120838091100694
:100E400090911106019620E430E0B9010E94CB0C8C
:100E500090931106809310068091CC059091CD055A
:100E600001969093CD058093CC0581EC90E0FC0138
:100E70008081882F90E080749070009761F586ECF7
:100E800090E02091CE053091CF0520533A4FF901E3
:100E90002081FC0120838091CE059091CF050196A1
:100EA00020E430E0B9010E94CB0C9093CF058093F1
:100EB000CE058091CC059091CD0501979093CD05FD
:100EC0008093CC0581EC90E021EC30E0F9012081A9
:100ED0002064FC01208389819A8101969A83898309
:100EE00009811A818B819C810E94870E081719073E
:100EF00040F48091CC059091CD05803491050CF49F
:100F00008DCF78940F900F900F900F90CF91DF912D
:100F10001F910F910895EF92FF920F931F937B0102
:100F20008C0120E030E040E05FE40E94890A87FD08
:100F300011C0C801B70120E030E040E05FE40E944A
:100F40002E090E94E90A9B01AC012050304040402C
:100F5000504806C0C801B7010E94E90A9B01AC01D4
:100F6000B901CA011F910F91FF90EF900895A0E081
:100F7000B0E0EDEBF7E00C94F60CFC01EA018081A7
:100F8000823008F438C1DB019C91923008F430C102
:100F9000843059F4943009F02EC1918111968C91CE
:100FA0001197981709F021C126C1943009F420C186
:100FB0009230B1F4823009F01EC1CA01AF0128E0BD
:100FC000DA010D90AD01DC010D92CD012150C1F788
:100FD000DB0111968C9111979181892389830AC134
:100FE000823009F405C1C280D380DB0112966D9076
:100FF0007C90139724813581468157811496ED901A
:10100000FD900D911C911797C601861997095C01F7
:1010100097FF04C0AA24BB24A81AB90AB0E2AB16F1
:10102000B1040CF061C0181619066CF537014801BF
:101030000A2C04C096948794779467940A94D2F704
:1010400081E090E0A0E0B0E00A2C04C0880F991F76
:10105000AA1FBB1F0A94D2F70197A109B1098E21DB
:101060009F21A023B123EE24FF248701E39400975E
:10107000A105B10519F4EE24FF248701E628F7281D
:10108000082919293CC00097D1F1CA0CDB1C390191
:101090004A010A2C04C096948794779467940A9422
:1010A000D2F781E090E0A0E0B0E00A2C04C0880F05
:1010B000991FAA1FBB1F0A94D2F70197A109B10972
:1010C00082239323A423B52321E030E040E050E0C5
:1010D0000097A105B10519F420E030E0A901262907
:1010E0003729482959290BC06C147D0424F4EE24B7
:1010F000FF24870104C0630120E030E0A901818161
:10110000FB019181891709F445C0882349F0D80172
:10111000C701821B930BA40BB50B9C01AD0104C04E
:101120002E193F09400B510B57FD04C01982DB8279
:10113000CA820BC081E08983DB82CA8250954095C8
:10114000309521953F4F4F4F5F4F2C833D834E830A
:101150005F830DC0880F991FAA1FBB1F8C839D83BF
:10116000AE83BF838A819B8101979B838A838C8115
:101170009D81AE81BF819C01AD0121503040404036
:1011800050402F3FEFEF3E07EFEF4E07EFE35E07D4
:1011900008F30BC08983DB82CA822E0D3F1D401FDE
:1011A000511F2C833D834E835F8383E088832C8192
:1011B0003D814E815F8157FF1DC0DA01C9018170F9
:1011C0009070A070B0705695479537952795822BF3
:1011D000932BA42BB52B8C839D83AE83BF838A81F5
:1011E0009B8101969B838A8305C0E1E1F1E003C006
:1011F000FB0101C0FE01CF01CDB7DEB7EEE00C94DC
:10120000120DA0E2B0E0E7E0F9E00C94FE0C698377
:101210007A838B839C832D833E834F83588789E019
:10122000E82EF12CEC0EFD1ECE010196B7010E94B6
:10123000090C8E010F5E1F4FCE010596B8010E946A
:10124000090CC701B801AE01475E5F4F0E94B707A6
:101250000E943B0BA096E6E00C941A0DA0E2B0E0D1
:10126000E4E3F9E00C94FE0C69837A838B839C831E
:101270002D833E834F8358878E01075F1F4FCE011A
:101280000196B8010E94090C91E1E92EF12CEC0EB7
:10129000FD1ECE010596B7010E94090C8A8991E0D6
:1012A00089278A8BC801B701AE01475E5F4F0E9454
:1012B000B7070E943B0BA096E6E00C941A0DA0E243
:1012C000B0E0E5E6F9E00C94F20C69837A838B8355
:1012D0009C832D833E834F835887CE010196BE01A8
:1012E000675F7F4F0E94090CCE010596BE016F5EBD
:1012F0007F4F0E94090C9985923078F0898982305D
:10130000C0F0943019F4823041F4CBC0843019F429
:10131000923079F4C6C0923051F481E02A859A89DE
:10132000291709F480E08A87CE010996BCC0823073
:1013300051F481E02A859A89291709F480E08A8B83
:10134000CE014196B0C06D847E848F849888ED88EC
:10135000FE880F89188DE0E2F0E080E090E0DC018B
:10136000AA24BB24650120E030E0A901B30161702B
:10137000707061157105D1F02E0D3F1D401F511F7A
:1013800015012601280E391E4A1E5B1E81E090E0E1
:10139000A0E0B0E02E153F054007510718F080E0AF
:1013A00090E0DC01820D931DA41DB51DAA0CBB1C91
:1013B000CC1CDD1C17FF09C061E0262E312C412C0E
:1013C000512CA228B328C428D528319749F0EE0C17
:1013D000FF1C001F111F9694879477946794C6CFC3
:1013E0006B897C89EB85FC856E0F7F1F6E5F7F4F5D
:1013F0007C8F6B8F61E0EA857A89E71709F460E0FA
:101400006A8F6B8D7C8D10C0FC01E170F07030979D
:1014100029F056954795379527955068B695A79525
:10142000979587956F5F7F4FB7FDEECF0CC0880F04
:10143000991FAA1FBB1F57FD8160220F331F441F36
:10144000551F615070408030E0E09E07E0E0AE073D
:10145000E0E4BE0760F36B8F7C8F6FE7E62EF12C24
:10146000012D112DE822F9220A231B2360E4E61640
:10147000F1040105110561F487FD0AC0211531054C
:101480004105510529F0805C9F4FAF4FBF4F8078D9
:101490008D8F9E8FAF8FB8A383E0898FCE01499641
:1014A00002C081E191E00E943B0BA096E2E10C9426
:1014B0000E0DA8E1B0E0EFE5FAE00C94FE0C6983B4
:1014C0007A838B839C832D833E834F8358878E0141
:1014D000075F1F4FCE010196B8010E94090C81E100
:1014E000E82EF12CEC0EFD1ECE010596B7010E94F0
:1014F000090C8985823040F08989823028F0C80142
:10150000B7010E94720C01C08FEF6896E6E00C9460
:101510001A0DA8E1B0E0EFE8FAE00C94FE0C698344
:101520007A838B839C832D833E834F8358878E01E0
:10153000075F1F4FCE010196B8010E94090C81E19F
:10154000E82EF12CEC0EFD1ECE010596B7010E948F
:10155000090C8985823040F08989823028F0C801E1
:10156000B7010E94720C01C08FEF6896E6E00C9400
:101570001A0DA8E1B0E0EFEBFAE00C94FE0C6983E1
:101580007A838B839C832D833E834F8358878E0180
:10159000075F1F4FCE010196B8010E94090C81E13F
:1015A000E82EF12CEC0EFD1ECE010596B7010E942F
:1015B000090C8985823040F08989823028F0C80181
:1015C000B7010E94720C01C081E06896E6E00C94BD
:1015D0001A0DACE0B0E0EFEEFAE00C94020D698376
:1015E0007A838B839C83CE010196BE016B5F7F4F14
:1015F0000E94090C8D81823081F1823070F184303B
:1016000021F48E81882369F10AC02F81388537FD46
:1016100024C06E812F3131053CF0662311F120E0AA
:1016200030E040E050E821C08EE190E0821B930B57
:1016300029853A854B855C8504C056954795379535
:1016400027958A95D2F7662381F05095409530957D
:1016500021953F4F4F4F5F4F08C020E030E0A90178
:1016600004C02FEF3FEF4FEF5FE7B901CA012C969F
:10167000E2E00C941E0DEF92FF920F931F93CF9315
:10168000DF93FC012481358146815781618180810E
:10169000823020F44061EFEFF0E0A3C0843009F421
:1016A0009BC0823009F492C02115310541055105D6
:1016B00009F48FC00280F381E02D8FEFE238F80744
:1016C0000CF05AC0C2E8DFEFCE1BDF0BCA31D105E8
:1016D0006CF579018A010C2E04C016950795F794D4
:1016E000E7940A94D2F781E090E0A0E0B0E00C2EFD
:1016F00004C0880F991FAA1FBB1F0A94D2F7019735
:10170000A109B10982239323A423B52321E030E06A
:1017100040E050E00097A105B10519F420E030E069
:10172000A9012E293F29402B512B03C020E030E096
:10173000A901DA01C9018F779070A070B070803470
:101740009105A105B10539F427FF09C0205C3F4F81
:101750004F4F5F4F04C0215C3F4F4F4F5F4FE1E061
:10176000F0E0203080E0380780E0480780E4580748
:1017700028F5E0E0F0E022C0E038F1056CF5E15832
:10178000FF4FDA01C9018F779070A070B07080347C
:101790009105A105B10539F427FF09C0205C3F4F31
:1017A0004F4F5F4F04C0215C3F4F4F4F5F4F57FF7C
:1017B00005C05695479537952795319687E05695FC
:1017C0004795379527958A95D1F70BC0E0E0F0E073
:1017D00005C0E0E0F0E005C0EFEFF0E020E030E031
:1017E000A9018E2F879588278795942F9F776795D6
:1017F00066276795E695E22EA92FA82BFE2FF62BDC
:10180000622F732F8A2F9F2FCDB7DEB7E6E00C949F
:101810001A0DDC01FB012C9111963C911197129647
:101820008C911297482F4F7750E0982F991F992746
:10183000991F13966C911397862F880F892B90E030
:10184000661F6627661F6183009739F521153105EC
:101850004105510511F482E029C082E89FEF93838E
:10186000828367E0220F331F441F551F6A95D1F70B
:1018700083E0808309C0220F331F441F551F8281DC
:101880009381019793838283203080E0380780E042
:10189000480780E4580778F320C08F3F910579F41A
:1018A000211531054105510519F484E0808308951F
:1018B00044FF03C081E0808310C010820EC08F57A8
:1018C00090409383828383E0808387E0220F331FDD
:1018D000441F551F8A95D1F750642483358346836E
:1018E00057830895FC01DB019081923008F449C0D0
:1018F0008C91823008F445C0943051F46181843079
:10190000B1F511962C91119730E0261B310941C099
:10191000843021F0923041F48230B1F111968C91F3
:1019200011978823A1F12DC06181823001F11196B8
:101930008C9111976817D9F42281338112968D9179
:101940009C9113978217930794F028173907BCF0DE
:10195000248135814681578114968D919D910D90FA
:10196000BC91A02D82179307A407B50718F466232E
:1019700041F00DC0281739074A075B0728F4662392
:1019800031F021E030E005C020E030E002C02FEF70
:101990003FEFC901089597FB092E07260AD077FD6E
:1019A00004D00CD006D000201AF4709561957F4FBA
:1019B0000895F6F7909581959F4F0895AA1BBB1B3C
:1019C00051E107C0AA1FBB1FA617B70710F0A61B3F
:1019D000B70B881F991F5A95A9F780959095BC0160
:1019E000CD0108952F923F924F925F926F927F9216
:1019F0008F929F92AF92BF92CF92DF92EF92FF921F
:101A00000F931F93CF93DF93CDB7DEB7CA1BDB0BCA
:101A10000FB6F894DEBF0FBECDBF09942A8839886F
:101A200048885F846E847D848C849B84AA84B98476
:101A3000C884DF80EE80FD800C811B81AA81B98182
:101A4000CE0FD11D0FB6F894DEBF0FBECDBFED0196
:101A50000895EF92FF920F931F93CF93DF93689FA8
:101A60008001699F100D789F100D1124C8010E94FC
:101A70004D0DE82EE7017E01F92EE701209731F0A8
:101A80008E2D60E070E0A8010E94800E7E01CE01E4
:101A9000CDB7DEB7E6E00C941A0DCF93DF9382301A
:101AA000910510F482E090E0E0911406F0911506A3
:101AB00040E050E020E030E026C06081718168178E
:101AC0007907E0F06817790781F482819381211505
:101AD000310531F0D90113969C938E9312972BC048
:101AE000909315068093140626C04115510519F0F0
:101AF0006417750718F4AB01E901DF019F017281DA
:101B00006381E72FF62F3097C1F64115510501F19A
:101B1000481B590B4430510580F412968D919C91CD
:101B20001397209719F09B838A8304C0909315061E
:101B300080931406FD01329646C0FD01E40FF51FA7
:101B4000819391934250504011965C934E933BC0C9
:101B500020911206309113062115310541F4209190
:101B60001B0130911C013093130620931206209123
:101B70001D0130911E012115310541F42DB73EB7ED
:101B80004091190150911A01241B350BE091120666
:101B9000F0911306E217F307A0F42E1B3F0B281752
:101BA000390778F0AC014E5F5F4F2417350748F0D6
:101BB0004E0F5F1F5093130640931206819391932B
:101BC00002C0E0E0F0E0CF01DF91CF910895CF9324
:101BD000DF93009709F491C0FC01329713821282BF
:101BE00060911406709115066115710581F42081CC
:101BF0003181280F391F80911206909113068217A8
:101C0000930799F5F0931306E093120676C0DB0173
:101C100080E090E002C0CD01D901AE17BF0748F4C3
:101C200012962D913C91139721153105A1F7CD0105
:101C300021C0B383A283EF01499159919E01240FE2
:101C4000351FA217B30779F42D913C911197240FFA
:101C5000351F2E5F3F4F3183208312962D913C918B
:101C6000139733832283009729F4F0931506E093AA
:101C7000140643C0DC011396FC93EE9312974D912A
:101C80005D91A40FB51FEA17FB0769F4208131812C
:101C9000240F351F2E5F3F4FEC01398328832281AB
:101CA00033813B832A83E0E0F0E002C0FB01BC010A
:101CB000DB0112968D919C9113970097B9F79B01C8
:101CC0002E5F3F4F8D919C911197820F931F4091F2
:101CD0001206509113064817590779F4309729F4E2
:101CE000109215061092140602C01382128222501E
:101CF00030403093130620931206DF91CF91089560
:101D0000DC0101C06D9341505040E0F70895FC01A3
:101D100001900020E9F7809590958E0F9F1F089500
:101D2000AEE0B0E0E6E9FEE00C94000D0D891E89FE
:101D300086E08C831A8309838FEF9FE79E838D83D0
:101D40009E01275E3F4FCE0101966F89788DA901D4
:101D50000E94B30EEF81F885E00FF11F10822E96DE
:101D6000E4E00C941C0DACE0B0E0E9EBFEE00C9478
:101D7000F20C6C011B018A01FC011782168283811F
:101D800081FFD1C12E010894411C511CF6019381A1
:101D9000F10193FD859193FF81911F01882309F43F
:101DA000BEC1853239F493FD859193FF81911F0166
:101DB000853229F490E0B6010E94B010E7CFEE24FE
:101DC000FF2420E02032B0F48B3269F08C3228F40A
:101DD000803251F0833271F40BC08D3239F0803390
:101DE00049F421602CC02260246029C0286027C0EB
:101DF000206125C027FD2CC0382F30533A3098F48D
:101E000026FF08C08E2D880FE82EEE0CEE0CE80E93
:101E1000E30E15C08F2D880FF82EFF0CFF0CF80E67
:101E2000F30E20620CC08E3221F426FD78C12064AE
:101E300006C08C3611F4206802C0883649F4F101DE
:101E400093FD859193FF81911F01882309F0BACFFB
:101E5000982F9554933018F09052933028F40C5FDB
:101E60001F4FFFE3F9830DC0833631F0833771F0E4
:101E7000833509F060C022C0F801808189830E5F3C
:101E80001F4F420171E0A72EB12C16C062E0662EF2
:101E9000712C600E711EF8018080918026FF03C0B6
:101EA0006E2D70E002C06FEF7FEFC4012C870E949F
:101EB000A5105C0183012C852F7717C052E0652E99
:101EC000712C600E711EF8018080918026FF03C086
:101ED0006E2D70E002C06FEF7FEFC4012C870E946F
:101EE0009A105C012C852068830123FD20C008C066
:101EF00080E290E0B6012C870E94B010FA942C8505
:101F00008F2D90E0A816B90698F311C0F40127FDB3
:101F1000859127FF81914F0190E0B6012C870E94A7
:101F2000B0102C85F110FA940894A108B108A114FE
:101F3000B10461F7F1C0843611F0893649F527FF05
:101F400008C0F80160817181828193810C5F1F4F0D
:101F500009C0F80160817181882777FD8095982FED
:101F60000E5F1F4F4FE6B42EB22297FF09C0909527
:101F70008095709561957F4F8F4F9F4FF0E8BF2AF6
:101F8000A2012AE030E00E94DC10782E741845C0CF
:101F9000853731F43FEEB32EB2222AE030E025C07F
:101FA00099EFB92EB2228F36C1F0803720F48835F0
:101FB00009F0B5C00DC0803721F0883709F0AFC0F7
:101FC00002C020E1B22AB4FE0BC084E0B82A08C0E7
:101FD000B4FE09C0E6E0BE2A06C028E030E005C035
:101FE00020E130E002C020E132E0B7FE08C0F80195
:101FF00060817181828193810C5F1F4F07C0F8015E
:102000006081718180E090E00E5F1F4FA2010E940D
:10201000DC10782E7418FFE7BF22B6FE0BC02EEF3F
:10202000B2227E1438F4B4FE07C0B2FC05C08FEEB5
:10203000B82202C0A72C01C0AE2C8B2D90E0B4FEBC
:102040000DC0FE01E70DF11D2081203319F4E9EEEA
:10205000BE2209C0A394B2FE06C004C08678907068
:10206000009709F0A3948B2C9924B3FC14C0B0FE04
:102070000FC0AF1428F4E72CEF0CEA18AF2C08C0FF
:10208000E72C06C080E290E0B6010E94B010A39455
:10209000AF14C0F304C0AF1410F4FA1801C0FF2449
:1020A00084FE0FC080E390E0B6010E94B01082FE73
:1020B0001FC081FE03C088E590E010C088E790E073
:1020C0000DC0C40186789070009791F081FC02C029
:1020D00080E201C08BE2B7FC8DE290E0B6010E9485
:1020E000B01006C080E390E0B6010E94B010EA9400
:1020F0007E14C0F37A94F201E70DF11D808190E027
:10210000B6010E94B0107720A9F706C080E290E0E7
:10211000B6010E94B010FA94FF20C1F737CEF60145
:102120002681378102C02FEF3FEFC9012C96E2E1F3
:102130000C940E0DFC010590615070400110D8F711
:10214000809590958E0F9F1F0895FC0161507040FF
:1021500001900110D8F7809590958E0F9F1F0895DC
:102160000F931F93CF93DF938C01EB018B8181FF42
:102170001BC082FF0DC02E813F818C819D8128175D
:10218000390764F4E881F9810193F983E88306C093
:10219000E885F985802F0995009731F48E819F811C
:1021A00001969F838E8302C00FEF1FEFC801DF915E
:1021B000CF911F910F910895FA01AA27283051F16C
:1021C000203181F1E8946F936E7F6E5F7F4F8F4F68
:1021D0009F4FAF4FB1E03ED0B4E03CD0670F781FC7
:1021E000891F9A1FA11D680F791F8A1F911DA11DAC
:1021F0006A0F711D811D911DA11D20D009F46894E5
:102200003F912AE0269F11243019305D3193DEF68C
:10221000CF010895462F4770405D4193B3E00FD042
:10222000C9F7F6CF462F4F70405D4A3318F0495D2D
:1022300031FD4052419302D0A9F7EACFB4E0A69510
:102240009795879577956795BA95C9F70097610532
:10225000710508959B01AC010A2E06945795479588
:1022600037952795BA95C9F7620F731F841F951F7D
:08227000A01D0895F894FFCFB2
:1022780025640D0A0073746172744F5300FFFFFFE9
:10228800FF0000000000000000200016060000000B
:00000001FF
